{
  "_format": "hh3-artifact-1",
  "contractName": "ArraysExercise",
  "sourceName": "contracts/ArraysExercise.sol",
  "abi": [
    {
      "inputs": [],
      "name": "afterY2K",
      "outputs": [
        {
          "internalType": "uint256[]",
          "name": "",
          "type": "uint256[]"
        },
        {
          "internalType": "address[]",
          "name": "",
          "type": "address[]"
        }
      ],
      "stateMutability": "view",
      "type": "function"
    },
    {
      "inputs": [
        {
          "internalType": "uint256[]",
          "name": "_toAppend",
          "type": "uint256[]"
        }
      ],
      "name": "appendToNumbers",
      "outputs": [],
      "stateMutability": "nonpayable",
      "type": "function"
    },
    {
      "inputs": [],
      "name": "getNumbers",
      "outputs": [
        {
          "internalType": "uint256[]",
          "name": "",
          "type": "uint256[]"
        }
      ],
      "stateMutability": "view",
      "type": "function"
    },
    {
      "inputs": [],
      "name": "resetNumbers",
      "outputs": [],
      "stateMutability": "nonpayable",
      "type": "function"
    },
    {
      "inputs": [],
      "name": "resetSenders",
      "outputs": [],
      "stateMutability": "nonpayable",
      "type": "function"
    },
    {
      "inputs": [],
      "name": "resetTimestamps",
      "outputs": [],
      "stateMutability": "nonpayable",
      "type": "function"
    },
    {
      "inputs": [
        {
          "internalType": "uint256",
          "name": "_unixTimestamp",
          "type": "uint256"
        }
      ],
      "name": "saveTimestamp",
      "outputs": [],
      "stateMutability": "nonpayable",
      "type": "function"
    }
  ],
  "bytecode": "0x6101c060405260016080908152600260a052600360c052600460e052600561010052600661012052600761014052600861016052600961018052600a6101a0819052604a915f91605a565b503480156055575f5ffd5b5060b5565b828054828255905f5260205f209081019282156095579160200282015b828111156095578251829060ff169055916020019190600101906077565b50609f92915060a3565b5090565b5b80821115609f575f815560010160a4565b6106b9806100c25f395ff3fe608060405234801561000f575f5ffd5b506004361061007a575f3560e01c806389f915f61161005857806389f915f6146100ba578063a00b7acd146100cf578063ade82bfd1461014b578063b1cebac514610153575f5ffd5b806320aaf79a1461007e5780634f9377db1461009d5780637f66b1b8146100b2575b5f5ffd5b61008661015b565b604051610094929190610535565b60405180910390f35b6100b06100ab366004610596565b61031d565b005b6100b0610368565b6100c2610375565b6040516100949190610607565b6100b06100dd366004610620565b6001805480820182557fb10e2d527612073b26eecdfd717e6a320cf44b4afac2b0732d9fcbe2b7fa0cf601919091556002805491820181555f527f405787fa12a823e0f2b7631cc41b3ba8828b3321ca811111fa75cd3aa3bb5ace0180546001600160a01b03191633179055565b6100b0610411565b6100b061041c565b6060805f805b6001548110156101a85763386d89d06001828154811061018357610183610637565b905f5260205f20015411156101a0578161019c8161064b565b9250505b600101610161565b505f8167ffffffffffffffff8111156101c3576101c361066f565b6040519080825280602002602001820160405280156101ec578160200160208202803683370190505b5090505f8267ffffffffffffffff8111156102095761020961066f565b604051908082528060200260200182016040528015610232578160200160208202803683370190505b5090505f805b6001548110156103115763386d89d06001828154811061025a5761025a610637565b905f5260205f2001541115610309576001818154811061027c5761027c610637565b905f5260205f20015484838151811061029757610297610637565b602002602001018181525050600281815481106102b6576102b6610637565b905f5260205f20015f9054906101000a90046001600160a01b03168383815181106102e3576102e3610637565b6001600160a01b0390921660209283029190910190910152816103058161064b565b9250505b600101610238565b50919590945092505050565b5f5b81811015610363575f83838381811061033a5761033a610637565b8354600180820186555f958652602095869020929095029390930135920191909155500161031f565b505050565b61037360025f61047e565b565b5f80546060919067ffffffffffffffff8111156103945761039461066f565b6040519080825280602002602001820160405280156103bd578160200160208202803683370190505b5090505f5b5f5481101561040b575f81815481106103dd576103dd610637565b905f5260205f2001548282815181106103f8576103f8610637565b60209081029190910101526001016103c2565b50919050565b61037360015f61047e565b604080516101408101825260018152600260208201526003918101919091526004606082015260056080820152600660a0820152600760c0820152600860e08201526009610100820152600a610120820181905261047b915f91610499565b50565b5080545f8255905f5260205f209081019061047b91906104e7565b828054828255905f5260205f209081019282156104d7579160200282015b828111156104d7578251829060ff169055916020019190600101906104b7565b506104e39291506104e7565b5090565b5b808211156104e3575f81556001016104e8565b5f8151808452602084019350602083015f5b8281101561052b57815186526020958601959091019060010161050d565b5093949350505050565b604081525f61054760408301856104fb565b82810360208401528084518083526020830191506020860192505f5b8181101561058a5783516001600160a01b0316835260209384019390920191600101610563565b50909695505050505050565b5f5f602083850312156105a7575f5ffd5b823567ffffffffffffffff8111156105bd575f5ffd5b8301601f810185136105cd575f5ffd5b803567ffffffffffffffff8111156105e3575f5ffd5b8560208260051b84010111156105f7575f5ffd5b6020919091019590945092505050565b602081525f61061960208301846104fb565b9392505050565b5f60208284031215610630575f5ffd5b5035919050565b634e487b7160e01b5f52603260045260245ffd5b5f6001820161066857634e487b7160e01b5f52601160045260245ffd5b5060010190565b634e487b7160e01b5f52604160045260245ffdfea2646970667358221220509a68ca98918be3cefddb5b484460ab4deadb8a98ec2fca832798ffff061c1f64736f6c634300081c0033",
  "linkReferences": {},
  "deployedLinkReferences": {},
  "immutableReferences": {},
  "inputSourceName": "project/contracts/ArraysExercise.sol",
  "buildInfoId": "solc-0_8_28-4595d1148c6ecc5c1e54089135991010dd1eaba6"
}