{
  "_format": "hh3-artifact-1",
  "contractName": "ControlStructures",
  "sourceName": "contracts/ControlStructures.sol",
  "abi": [
    {
      "inputs": [
        {
          "internalType": "uint256",
          "name": "time",
          "type": "uint256"
        }
      ],
      "name": "AfterHours",
      "type": "error"
    },
    {
      "inputs": [],
      "name": "AtLunch",
      "type": "error"
    },
    {
      "inputs": [
        {
          "internalType": "uint256",
          "name": "_time",
          "type": "uint256"
        }
      ],
      "name": "doNotDisturb",
      "outputs": [
        {
          "internalType": "string",
          "name": "result",
          "type": "string"
        }
      ],
      "stateMutability": "pure",
      "type": "function"
    },
    {
      "inputs": [
        {
          "internalType": "uint256",
          "name": "_number",
          "type": "uint256"
        }
      ],
      "name": "fizzBuzz",
      "outputs": [
        {
          "internalType": "string",
          "name": "response",
          "type": "string"
        }
      ],
      "stateMutability": "pure",
      "type": "function"
    }
  ],
  "bytecode": "0x6080604052348015600e575f5ffd5b506103308061001c5f395ff3fe608060405234801561000f575f5ffd5b5060043610610034575f3560e01c8063440c93e214610038578063e655b7bb14610061575b5f5ffd5b61004b61004636600461027b565b610074565b6040516100589190610292565b60405180910390f35b61004b61006f36600461027b565b610147565b60606100816003836102c7565b15801561009657506100946005836102c7565b155b156100bf5750506040805180820190915260088152672334bd3d213abd3d60c11b602082015290565b6100ca6003836102c7565b5f036100f05750506040805180820190915260048152632334bd3d60e11b602082015290565b6100fb6005836102c7565b5f03610121575050604080518082019091526004815263213abd3d60e11b602082015290565b505060408051808201909152600581526414dc1b185d60da1b602082015290565b919050565b6060610960821061015a5761015a6102e6565b61089882118061016b575061032082105b156101905760405163525fb80f60e11b81526004810183905260240160405180910390fd5b6104b082101580156101a457506105138211155b156101c2576040516301146c9160e31b815260040160405180910390fd5b61032082101580156101d657506104af8211155b156101ff5750506040805180820190915260088152674d6f726e696e672160c01b602082015290565b610514821015801561021357506107078211155b1561023e57505060408051808201909152600a81526941667465726e6f6f6e2160b01b602082015290565b610708821015801561025257506108988211155b156101425750506040805180820190915260088152674576656e696e672160c01b602082015290565b5f6020828403121561028b575f5ffd5b5035919050565b602081525f82518060208401528060208501604085015e5f604082850101526040601f19601f83011684010191505092915050565b5f826102e157634e487b7160e01b5f52601260045260245ffd5b500690565b634e487b7160e01b5f52600160045260245ffdfea2646970667358221220b78289299e8d84b686c927c314b90a5ff79e27ceb547c8d7cbc6d1a5cd8ea12c64736f6c634300081c0033",
  "linkReferences": {},
  "deployedLinkReferences": {},
  "immutableReferences": {},
  "inputSourceName": "project/contracts/ControlStructures.sol",
  "buildInfoId": "solc-0_8_28-e2d84189a937c87f8434ca66e4d294d3c0dcd9ec"
}