{
  "_format": "hh3-artifact-1",
  "contractName": "EmployeeStorage",
  "sourceName": "contracts/EmployeeStorage.sol",
  "abi": [
    {
      "inputs": [
        {
          "internalType": "uint16",
          "name": "_shares",
          "type": "uint16"
        },
        {
          "internalType": "string",
          "name": "_name",
          "type": "string"
        },
        {
          "internalType": "uint32",
          "name": "_salary",
          "type": "uint32"
        },
        {
          "internalType": "uint256",
          "name": "_idNumber",
          "type": "uint256"
        }
      ],
      "stateMutability": "nonpayable",
      "type": "constructor"
    },
    {
      "inputs": [
        {
          "internalType": "uint16",
          "name": "sharesTotal",
          "type": "uint16"
        }
      ],
      "name": "TooManyShares",
      "type": "error"
    },
    {
      "inputs": [
        {
          "internalType": "uint256",
          "name": "_slot",
          "type": "uint256"
        }
      ],
      "name": "checkForPacking",
      "outputs": [
        {
          "internalType": "uint256",
          "name": "r",
          "type": "uint256"
        }
      ],
      "stateMutability": "view",
      "type": "function"
    },
    {
      "inputs": [],
      "name": "debugResetShares",
      "outputs": [],
      "stateMutability": "nonpayable",
      "type": "function"
    },
    {
      "inputs": [
        {
          "internalType": "uint16",
          "name": "_newShares",
          "type": "uint16"
        }
      ],
      "name": "grantShares",
      "outputs": [],
      "stateMutability": "nonpayable",
      "type": "function"
    },
    {
      "inputs": [],
      "name": "idNumber",
      "outputs": [
        {
          "internalType": "uint256",
          "name": "",
          "type": "uint256"
        }
      ],
      "stateMutability": "view",
      "type": "function"
    },
    {
      "inputs": [],
      "name": "name",
      "outputs": [
        {
          "internalType": "string",
          "name": "",
          "type": "string"
        }
      ],
      "stateMutability": "view",
      "type": "function"
    },
    {
      "inputs": [],
      "name": "viewSalary",
      "outputs": [
        {
          "internalType": "uint32",
          "name": "",
          "type": "uint32"
        }
      ],
      "stateMutability": "view",
      "type": "function"
    },
    {
      "inputs": [],
      "name": "viewShares",
      "outputs": [
        {
          "internalType": "uint16",
          "name": "",
          "type": "uint16"
        }
      ],
      "stateMutability": "view",
      "type": "function"
    }
  ],
  "bytecode": "0x608060405234801561000f575f5ffd5b5060405161066038038061066083398101604081905261002e916100a4565b5f805461ffff191661ffff8616179055600261004a8482610209565b505f805463ffffffff909316620100000265ffffffff00001990931692909217909155600155506102c39050565b634e487b7160e01b5f52604160045260245ffd5b805163ffffffff8116811461009f575f5ffd5b919050565b5f5f5f5f608085870312156100b7575f5ffd5b845161ffff811681146100c8575f5ffd5b60208601519094506001600160401b038111156100e3575f5ffd5b8501601f810187136100f3575f5ffd5b80516001600160401b0381111561010c5761010c610078565b604051601f8201601f19908116603f011681016001600160401b038111828210171561013a5761013a610078565b604052818152828201602001891015610151575f5ffd5b8160208401602083015e5f602083830101528095505050506101756040860161008c565b6060959095015193969295505050565b600181811c9082168061019957607f821691505b6020821081036101b757634e487b7160e01b5f52602260045260245ffd5b50919050565b601f82111561020457805f5260205f20601f840160051c810160208510156101e25750805b601f840160051c820191505b81811015610201575f81556001016101ee565b50505b505050565b81516001600160401b0381111561022257610222610078565b610236816102308454610185565b846101bd565b6020601f821160018114610268575f83156102515750848201515b5f19600385901b1c1916600184901b178455610201565b5f84815260208120601f198516915b828110156102975787850151825560209485019460019092019101610277565b50848210156102b457868401515f19600387901b60f8161c191681555b50505050600190811b01905550565b610390806102d05f395ff3fe608060405234801561000f575f5ffd5b506004361061007a575f3560e01c80634c764809116100585780634c764809146100d657806352c98689146100eb5780636d45e2a5146100fe5780638f6a861a14610113575f5ffd5b806306fdde031461007e5780633f83ea3b1461009c57806349574402146100b3575b5f5ffd5b610086610125565b6040516100939190610282565b60405180910390f35b6100a560015481565b604051908152602001610093565b5f5462010000900463ffffffff1660405163ffffffff9091168152602001610093565b6100e95f805461ffff19166103e8179055565b005b6100e96100f93660046102b7565b6101b1565b5f5460405161ffff9091168152602001610093565b6100a56101213660046102df565b5490565b60028054610132906102f6565b80601f016020809104026020016040519081016040528092919081815260200182805461015e906102f6565b80156101a95780601f10610180576101008083540402835291602001916101a9565b820191905f5260205f20905b81548152906001019060200180831161018c57829003601f168201915b505050505081565b6113888161ffff1611156101fe5760405162461bcd60e51b815260206004820152600f60248201526e546f6f206d616e792073686172657360881b60448201526064015b60405180910390fd5b5f546113889061021390839061ffff1661032e565b61ffff16111561024e575f5461022e90829061ffff1661032e565b6040516315f9c60960e21b815261ffff90911660048201526024016101f5565b5f8054829190819061026590849061ffff1661032e565b92506101000a81548161ffff021916908361ffff16021790555050565b602081525f82518060208401528060208501604085015e5f604082850101526040601f19601f83011684010191505092915050565b5f602082840312156102c7575f5ffd5b813561ffff811681146102d8575f5ffd5b9392505050565b5f602082840312156102ef575f5ffd5b5035919050565b600181811c9082168061030a57607f821691505b60208210810361032857634e487b7160e01b5f52602260045260245ffd5b50919050565b61ffff818116838216019081111561035457634e487b7160e01b5f52601160045260245ffd5b9291505056fea2646970667358221220f24b2fa59564f4f0910f02969df3cdcfec9787e29b95868f92f98f4fa811399464736f6c634300081c0033",
  "linkReferences": {},
  "deployedLinkReferences": {},
  "immutableReferences": {},
  "inputSourceName": "project/contracts/EmployeeStorage.sol",
  "buildInfoId": "solc-0_8_28-ec4852a4f0d5d1399899dd36bd457501b42c2fc9"
}