{
  "_format": "hh3-artifact-1",
  "contractName": "ErrorTriageExercise",
  "sourceName": "contracts/ErrorTriageExercise.sol",
  "abi": [
    {
      "inputs": [
        {
          "internalType": "uint256",
          "name": "_num",
          "type": "uint256"
        }
      ],
      "name": "addToArr",
      "outputs": [],
      "stateMutability": "nonpayable",
      "type": "function"
    },
    {
      "inputs": [
        {
          "internalType": "uint256",
          "name": "_base",
          "type": "uint256"
        },
        {
          "internalType": "int256",
          "name": "_modifier",
          "type": "int256"
        }
      ],
      "name": "applyModifier",
      "outputs": [
        {
          "internalType": "uint256",
          "name": "returnValue",
          "type": "uint256"
        }
      ],
      "stateMutability": "pure",
      "type": "function"
    },
    {
      "inputs": [
        {
          "internalType": "uint256",
          "name": "_a",
          "type": "uint256"
        },
        {
          "internalType": "uint256",
          "name": "_b",
          "type": "uint256"
        },
        {
          "internalType": "uint256",
          "name": "_c",
          "type": "uint256"
        },
        {
          "internalType": "uint256",
          "name": "_d",
          "type": "uint256"
        }
      ],
      "name": "diffWithNeighbor",
      "outputs": [
        {
          "internalType": "uint256[]",
          "name": "",
          "type": "uint256[]"
        }
      ],
      "stateMutability": "pure",
      "type": "function"
    },
    {
      "inputs": [],
      "name": "getArr",
      "outputs": [
        {
          "internalType": "uint256[]",
          "name": "",
          "type": "uint256[]"
        }
      ],
      "stateMutability": "view",
      "type": "function"
    },
    {
      "inputs": [],
      "name": "popWithReturn",
      "outputs": [
        {
          "internalType": "uint256",
          "name": "returnNum",
          "type": "uint256"
        }
      ],
      "stateMutability": "nonpayable",
      "type": "function"
    },
    {
      "inputs": [],
      "name": "resetArr",
      "outputs": [],
      "stateMutability": "nonpayable",
      "type": "function"
    }
  ],
  "bytecode": "0x6080604052348015600e575f5ffd5b506104778061001c5f395ff3fe608060405234801561000f575f5ffd5b5060043610610060575f3560e01c80631abe2ac214610064578063294323141461007f57806364529db51461009f578063e1819ff9146100a9578063f74e51ea146100e8578063fb8cbced146100fb575b5f5ffd5b61006c610103565b6040519081526020015b60405180910390f35b61009261008d36600461031d565b610167565b604051610076919061034c565b6100a7610250565b005b6100a76100b736600461038e565b5f80546001810182559080527f290decd9548b62a8d60345a988386fc84ba6bc95484008f6362f93160ef3e5630155565b61006c6100f63660046103a5565b61025c565b610092610292565b5f8054810361011157505f90565b5f80548190610122906001906103d9565b81548110610132576101326103ec565b905f5260205f20015490505f80548061014d5761014d610400565b600190038181905f5260205f20015f905590558091505090565b604080516003808252608082019092526060915f91906020820184803683370190505090508486116101a25761019d86866103d9565b6101ac565b6101ac85876103d9565b815f815181106101be576101be6103ec565b6020026020010181815250508385116101e0576101db85856103d9565b6101ea565b6101ea84866103d9565b816001815181106101fd576101fd6103ec565b60200260200101818152505082841161021f5761021a84846103d9565b610229565b61022983856103d9565b8160028151811061023c5761023c6103ec565b602090810291909101015295945050505050565b61025a5f806102e7565b565b5f5f8213156102765761026f8284610414565b905061028c565b61027f82610427565b61028990846103d9565b90505b92915050565b60605f8054806020026020016040519081016040528092919081815260200182805480156102dd57602002820191905f5260205f20905b8154815260200190600101908083116102c9575b5050505050905090565b5080545f8255905f5260205f20908101906103029190610305565b50565b5b80821115610319575f8155600101610306565b5090565b5f5f5f5f60808587031215610330575f5ffd5b5050823594602084013594506040840135936060013592509050565b602080825282518282018190525f918401906040840190835b81811015610383578351835260209384019390920191600101610365565b509095945050505050565b5f6020828403121561039e575f5ffd5b5035919050565b5f5f604083850312156103b6575f5ffd5b50508035926020909101359150565b634e487b7160e01b5f52601160045260245ffd5b8181038181111561028c5761028c6103c5565b634e487b7160e01b5f52603260045260245ffd5b634e487b7160e01b5f52603160045260245ffd5b8082018082111561028c5761028c6103c5565b5f600160ff1b820161043b5761043b6103c5565b505f039056fea2646970667358221220a1e9217cd06bf51e01761bc647854f39fdb57bd4b9bb79f4f54c6519f834dcfe64736f6c634300081c0033",
  "linkReferences": {},
  "deployedLinkReferences": {},
  "immutableReferences": {},
  "inputSourceName": "project/contracts/ErrorTriageExercise.sol",
  "buildInfoId": "solc-0_8_28-34e9ceba67e22739b118b10ff1cde71343fdd34c"
}