{
  "_format": "hh3-artifact-1",
  "contractName": "FavoriteRecords",
  "sourceName": "contracts/FavoriteRecords.sol",
  "abi": [
    {
      "inputs": [],
      "stateMutability": "nonpayable",
      "type": "constructor"
    },
    {
      "inputs": [
        {
          "internalType": "string",
          "name": "albumName",
          "type": "string"
        }
      ],
      "name": "NotApproved",
      "type": "error"
    },
    {
      "inputs": [
        {
          "internalType": "string",
          "name": "_albumName",
          "type": "string"
        }
      ],
      "name": "addRecord",
      "outputs": [],
      "stateMutability": "nonpayable",
      "type": "function"
    },
    {
      "inputs": [],
      "name": "getApprovedRecords",
      "outputs": [
        {
          "internalType": "string[]",
          "name": "",
          "type": "string[]"
        }
      ],
      "stateMutability": "view",
      "type": "function"
    },
    {
      "inputs": [
        {
          "internalType": "address",
          "name": "_address",
          "type": "address"
        }
      ],
      "name": "getUserFavorites",
      "outputs": [
        {
          "internalType": "string[]",
          "name": "",
          "type": "string[]"
        }
      ],
      "stateMutability": "view",
      "type": "function"
    },
    {
      "inputs": [],
      "name": "resetUserFavorites",
      "outputs": [],
      "stateMutability": "nonpayable",
      "type": "function"
    },
    {
      "inputs": [
        {
          "internalType": "address",
          "name": "",
          "type": "address"
        },
        {
          "internalType": "string",
          "name": "",
          "type": "string"
        }
      ],
      "name": "userFavorites",
      "outputs": [
        {
          "internalType": "bool",
          "name": "",
          "type": "bool"
        }
      ],
      "stateMutability": "view",
      "type": "function"
    }
  ],
  "bytecode": "0x608060405234801561000f575f5ffd5b50604080516101608101825260086101208201908152672a343934b63632b960c11b610140830152815281518083018352600d8082526c4261636b20696e20426c61636b60981b60208381019190915280840192909252835180850185529081526c151a1948109bd91e59dd585c99609a1b818301528284015282518084018452601981527f546865204461726b2053696465206f6620746865204d6f6f6e0000000000000081830152606083015282518084018452601f81527f546865697220477265617465737420486974732028313937312d31393735290081830152608083015282518084018452601081526f486f74656c2043616c69666f726e696160801b8183015260a083015282518084018452600c81526b21b7b6b29027b71027bb32b960a11b8183015260c083015282518084018452600781526652756d6f75727360c81b8183015260e08301528251808401909352601483527f5361747572646179204e69676874204665766572000000000000000000000000908301526101008101919091526101a690600190600961020c565b505f5b6001548110156102065760015f600183815481106101c9576101c96102ca565b905f5260205f20016040516101de9190610316565b908152604051908190036020019020805491151560ff199092169190911790556001016101a9565b506104a1565b828054828255905f5260205f20908101928215610250579160200282015b82811115610250578251829061024090826103e7565b509160200191906001019061022a565b5061025c929150610260565b5090565b8082111561025c575f610273828261027c565b50600101610260565b508054610288906102de565b5f825580601f10610297575050565b601f0160209004905f5260205f20908101906102b391906102b6565b50565b5b8082111561025c575f81556001016102b7565b634e487b7160e01b5f52603260045260245ffd5b600181811c908216806102f257607f821691505b60208210810361031057634e487b7160e01b5f52602260045260245ffd5b50919050565b5f5f8354610323816102de565b60018216801561033a576001811461034f5761037c565b60ff198316865281151582028601935061037c565b865f5260205f205f5b8381101561037457815488820152600190910190602001610358565b505081860193505b509195945050505050565b634e487b7160e01b5f52604160045260245ffd5b601f8211156103e257805f5260205f20601f840160051c810160208510156103c05750805b601f840160051c820191505b818110156103df575f81556001016103cc565b50505b505050565b81516001600160401b0381111561040057610400610387565b6104148161040e84546102de565b8461039b565b6020601f821160018114610446575f831561042f5750848201515b5f19600385901b1c1916600184901b1784556103df565b5f84815260208120601f198516915b828110156104755787850151825560209485019460019092019101610455565b508482101561049257868401515f19600387901b60f8161c191681555b50505050600190811b01905550565b6108bc806104ae5f395ff3fe608060405234801561000f575f5ffd5b5060043610610055575f3560e01c80631cf0830b14610059578063837f887814610077578063c75c333c14610081578063c7853148146100cf578063d81aa8c4146100e2575b5f5ffd5b6100616100f5565b60405161006e91906104d8565b60405180910390f35b61007f6101c9565b005b6100bf61008f3660046105f5565b600260209081525f9283526040909220815180830184018051928152908401929093019190912091525460ff1681565b604051901515815260200161006e565b6100616100dd366004610640565b61025a565b61007f6100f0366004610660565b610344565b60606001805480602002602001604051908101604052809291908181526020015f905b828210156101c0578382905f5260205f200180546101359061069a565b80601f01602080910402602001604051908101604052809291908181526020018280546101619061069a565b80156101ac5780601f10610183576101008083540402835291602001916101ac565b820191905f5260205f20905b81548152906001019060200180831161018f57829003601f168201915b505050505081526020019060010190610118565b50505050905090565b5f5b335f9081526003602052604090205481101561024057335f908152600260209081526040808320600390925290912080548390811061020c5761020c6106d2565b905f5260205f200160405161022191906106e6565b908152604051908190036020019020805460ff191690556001016101cb565b50335f9081526003602052604081206102589161042d565b565b6001600160a01b0381165f908152600360209081526040808320805482518185028101850190935280835260609492939192909184015b82821015610339578382905f5260205f200180546102ae9061069a565b80601f01602080910402602001604051908101604052809291908181526020018280546102da9061069a565b80156103255780601f106102fc57610100808354040283529160200191610325565b820191905f5260205f20905b81548152906001019060200180831161030857829003601f168201915b505050505081526020019060010190610291565b505050509050919050565b5f816040516103539190610757565b9081526040519081900360200190205460ff1661038e5780604051634f0ffc1b60e01b8152600401610385919061076d565b60405180910390fd5b335f908152600260205260409081902090516103ab908390610757565b9081526040519081900360200190205460ff1661042a57335f90815260026020526040908190209051600191906103e3908490610757565b9081526040805160209281900383019020805460ff191693151593909317909255335f90815260038252918220805460018101825590835291200161042882826107cb565b505b50565b5080545f8255905f5260205f209081019061042a91905b80821115610460575f6104578282610464565b50600101610444565b5090565b5080546104709061069a565b5f825580601f1061047f575050565b601f0160209004905f5260205f209081019061042a91905b80821115610460575f8155600101610497565b5f81518084528060208401602086015e5f602082860101526020601f19601f83011685010191505092915050565b5f602082016020835280845180835260408501915060408160051b8601019250602086015f5b8281101561052f57603f1987860301845261051a8583516104aa565b945060209384019391909101906001016104fe565b50929695505050505050565b80356001600160a01b0381168114610551575f5ffd5b919050565b634e487b7160e01b5f52604160045260245ffd5b5f82601f830112610579575f5ffd5b813567ffffffffffffffff81111561059357610593610556565b604051601f8201601f19908116603f0116810167ffffffffffffffff811182821017156105c2576105c2610556565b6040528181528382016020018510156105d9575f5ffd5b816020850160208301375f918101602001919091529392505050565b5f5f60408385031215610606575f5ffd5b61060f8361053b565b9150602083013567ffffffffffffffff81111561062a575f5ffd5b6106368582860161056a565b9150509250929050565b5f60208284031215610650575f5ffd5b6106598261053b565b9392505050565b5f60208284031215610670575f5ffd5b813567ffffffffffffffff811115610686575f5ffd5b6106928482850161056a565b949350505050565b600181811c908216806106ae57607f821691505b6020821081036106cc57634e487b7160e01b5f52602260045260245ffd5b50919050565b634e487b7160e01b5f52603260045260245ffd5b5f5f83546106f38161069a565b60018216801561070a576001811461071f5761074c565b60ff198316865281151582028601935061074c565b865f5260205f205f5b8381101561074457815488820152600190910190602001610728565b505081860193505b509195945050505050565b5f82518060208501845e5f920191825250919050565b602081525f61065960208301846104aa565b601f8211156107c657805f5260205f20601f840160051c810160208510156107a45750805b601f840160051c820191505b818110156107c3575f81556001016107b0565b50505b505050565b815167ffffffffffffffff8111156107e5576107e5610556565b6107f9816107f3845461069a565b8461077f565b6020601f82116001811461082b575f83156108145750848201515b5f19600385901b1c1916600184901b1784556107c3565b5f84815260208120601f198516915b8281101561085a578785015182556020948501946001909201910161083a565b508482101561087757868401515f19600387901b60f8161c191681555b50505050600190811b0190555056fea26469706673582212204f3b696ee166b011f426a1aab90d0e2d2b48b83477ff635ac56ea431b55f00d364736f6c634300081c0033",
  "linkReferences": {},
  "deployedLinkReferences": {},
  "immutableReferences": {},
  "inputSourceName": "project/contracts/FavoriteRecords.sol",
  "buildInfoId": "solc-0_8_28-6740bcaf7dbff13d026463c6ad09e98e84582ac9"
}