{
  "_format": "hh3-artifact-1",
  "contractName": "GarageManager",
  "sourceName": "contracts/GarageManager.sol",
  "abi": [
    {
      "inputs": [
        {
          "internalType": "uint256",
          "name": "index",
          "type": "uint256"
        }
      ],
      "name": "BadCarIndex",
      "type": "error"
    },
    {
      "inputs": [
        {
          "internalType": "string",
          "name": "_make",
          "type": "string"
        },
        {
          "internalType": "string",
          "name": "_model",
          "type": "string"
        },
        {
          "internalType": "string",
          "name": "_color",
          "type": "string"
        },
        {
          "internalType": "uint256",
          "name": "_numberOfDoors",
          "type": "uint256"
        }
      ],
      "name": "addCar",
      "outputs": [],
      "stateMutability": "nonpayable",
      "type": "function"
    },
    {
      "inputs": [],
      "name": "getMyCars",
      "outputs": [
        {
          "components": [
            {
              "internalType": "string",
              "name": "make",
              "type": "string"
            },
            {
              "internalType": "string",
              "name": "model",
              "type": "string"
            },
            {
              "internalType": "string",
              "name": "color",
              "type": "string"
            },
            {
              "internalType": "uint256",
              "name": "numberOfDoors",
              "type": "uint256"
            }
          ],
          "internalType": "struct GarageManager.Car[]",
          "name": "",
          "type": "tuple[]"
        }
      ],
      "stateMutability": "view",
      "type": "function"
    },
    {
      "inputs": [
        {
          "internalType": "address",
          "name": "_user",
          "type": "address"
        }
      ],
      "name": "getUserCars",
      "outputs": [
        {
          "components": [
            {
              "internalType": "string",
              "name": "make",
              "type": "string"
            },
            {
              "internalType": "string",
              "name": "model",
              "type": "string"
            },
            {
              "internalType": "string",
              "name": "color",
              "type": "string"
            },
            {
              "internalType": "uint256",
              "name": "numberOfDoors",
              "type": "uint256"
            }
          ],
          "internalType": "struct GarageManager.Car[]",
          "name": "",
          "type": "tuple[]"
        }
      ],
      "stateMutability": "view",
      "type": "function"
    },
    {
      "inputs": [],
      "name": "resetMyGarage",
      "outputs": [],
      "stateMutability": "nonpayable",
      "type": "function"
    },
    {
      "inputs": [
        {
          "internalType": "uint256",
          "name": "_index",
          "type": "uint256"
        },
        {
          "internalType": "string",
          "name": "_make",
          "type": "string"
        },
        {
          "internalType": "string",
          "name": "_model",
          "type": "string"
        },
        {
          "internalType": "string",
          "name": "_color",
          "type": "string"
        },
        {
          "internalType": "uint256",
          "name": "_numberOfDoors",
          "type": "uint256"
        }
      ],
      "name": "updateCar",
      "outputs": [],
      "stateMutability": "nonpayable",
      "type": "function"
    }
  ],
  "bytecode": "0x6080604052348015600e575f5ffd5b50610b898061001c5f395ff3fe608060405234801561000f575f5ffd5b5060043610610055575f3560e01c80632698286c14610059578063341fa05d146100825780634cd1ed3d1461008a5780636dcb78961461009f578063d2d50bd8146100a7575b5f5ffd5b61006c610067366004610722565b6100ba565b604051610079919061077d565b60405180910390f35b61006c6102e3565b61009d6100983660046108cb565b610501565b005b61009d6105d4565b61009d6100b536600461096a565b6105ed565b6001600160a01b0381165f90815260208181526040808320805482518185028101850190935280835260609492939192909184015b828210156102d8578382905f5260205f2090600402016040518060800160405290815f8201805461011f90610a00565b80601f016020809104026020016040519081016040528092919081815260200182805461014b90610a00565b80156101965780601f1061016d57610100808354040283529160200191610196565b820191905f5260205f20905b81548152906001019060200180831161017957829003601f168201915b505050505081526020016001820180546101af90610a00565b80601f01602080910402602001604051908101604052809291908181526020018280546101db90610a00565b80156102265780601f106101fd57610100808354040283529160200191610226565b820191905f5260205f20905b81548152906001019060200180831161020957829003601f168201915b5050505050815260200160028201805461023f90610a00565b80601f016020809104026020016040519081016040528092919081815260200182805461026b90610a00565b80156102b65780601f1061028d576101008083540402835291602001916102b6565b820191905f5260205f20905b81548152906001019060200180831161029957829003601f168201915b50505050508152602001600382015481525050815260200190600101906100ef565b505050509050919050565b335f90815260208181526040808320805482518185028101850190935280835260609492939192909184015b828210156104f8578382905f5260205f2090600402016040518060800160405290815f8201805461033f90610a00565b80601f016020809104026020016040519081016040528092919081815260200182805461036b90610a00565b80156103b65780601f1061038d576101008083540402835291602001916103b6565b820191905f5260205f20905b81548152906001019060200180831161039957829003601f168201915b505050505081526020016001820180546103cf90610a00565b80601f01602080910402602001604051908101604052809291908181526020018280546103fb90610a00565b80156104465780601f1061041d57610100808354040283529160200191610446565b820191905f5260205f20905b81548152906001019060200180831161042957829003601f168201915b5050505050815260200160028201805461045f90610a00565b80601f016020809104026020016040519081016040528092919081815260200182805461048b90610a00565b80156104d65780601f106104ad576101008083540402835291602001916104d6565b820191905f5260205f20905b8154815290600101906020018083116104b957829003601f168201915b505050505081526020016003820154815250508152602001906001019061030f565b50505050905090565b335f9081526020819052604090205485106105365760405163206480e760e11b81526004810186905260240160405180910390fd5b60408051608081018252858152602080820186905281830185905260608201849052335f908152908190529190912080548790811061057757610577610a38565b5f918252602090912082516004909202019081906105959082610a98565b50602082015160018201906105aa9082610a98565b50604082015160028201906105bf9082610a98565b50606082015181600301559050505050505050565b335f9081526020819052604081206105eb9161067b565b565b335f90815260208181526040808320815160808101835288815280840188905291820186905260608201859052805460018101825590845291909220825160049092020190819061063e9082610a98565b50602082015160018201906106539082610a98565b50604082015160028201906106689082610a98565b5060608201518160030155505050505050565b5080545f8255600402905f5260205f2090810190610699919061069c565b50565b808211156106d8575f6106af82826106dc565b6106bc600183015f6106dc565b6106c9600283015f6106dc565b505f600382015560040161069c565b5090565b5080546106e890610a00565b5f825580601f106106f7575050565b601f0160209004905f5260205f209081019061069991905b808211156106d8575f815560010161070f565b5f60208284031215610732575f5ffd5b81356001600160a01b0381168114610748575f5ffd5b9392505050565b5f81518084528060208401602086015e5f602082860101526020601f19601f83011685010191505092915050565b5f602082016020835280845180835260408501915060408160051b8601019250602086015f5b8281101561082057603f1987860301845281518051608087526107c9608088018261074f565b9050602082015187820360208901526107e2828261074f565b915050604082015187820360408901526107fc828261074f565b606093840151989093019790975250945060209384019391909101906001016107a3565b50929695505050505050565b634e487b7160e01b5f52604160045260245ffd5b5f82601f83011261084f575f5ffd5b813567ffffffffffffffff8111156108695761086961082c565b604051601f8201601f19908116603f0116810167ffffffffffffffff811182821017156108985761089861082c565b6040528181528382016020018510156108af575f5ffd5b816020850160208301375f918101602001919091529392505050565b5f5f5f5f5f60a086880312156108df575f5ffd5b85359450602086013567ffffffffffffffff8111156108fc575f5ffd5b61090888828901610840565b945050604086013567ffffffffffffffff811115610924575f5ffd5b61093088828901610840565b935050606086013567ffffffffffffffff81111561094c575f5ffd5b61095888828901610840565b95989497509295608001359392505050565b5f5f5f5f6080858703121561097d575f5ffd5b843567ffffffffffffffff811115610993575f5ffd5b61099f87828801610840565b945050602085013567ffffffffffffffff8111156109bb575f5ffd5b6109c787828801610840565b935050604085013567ffffffffffffffff8111156109e3575f5ffd5b6109ef87828801610840565b949793965093946060013593505050565b600181811c90821680610a1457607f821691505b602082108103610a3257634e487b7160e01b5f52602260045260245ffd5b50919050565b634e487b7160e01b5f52603260045260245ffd5b601f821115610a9357805f5260205f20601f840160051c81016020851015610a715750805b601f840160051c820191505b81811015610a90575f8155600101610a7d565b50505b505050565b815167ffffffffffffffff811115610ab257610ab261082c565b610ac681610ac08454610a00565b84610a4c565b6020601f821160018114610af8575f8315610ae15750848201515b5f19600385901b1c1916600184901b178455610a90565b5f84815260208120601f198516915b82811015610b275787850151825560209485019460019092019101610b07565b5084821015610b4457868401515f19600387901b60f8161c191681555b50505050600190811b0190555056fea2646970667358221220e6d52021ce78dd5ba59d9aee2cf2208a4c43e5a9fa0a850e405016dd911e8d1164736f6c634300081c0033",
  "linkReferences": {},
  "deployedLinkReferences": {},
  "immutableReferences": {},
  "inputSourceName": "project/contracts/GarageManager.sol",
  "buildInfoId": "solc-0_8_28-5d656499d0154807e310c956b8c1f013c1faf0e0"
}