{
  "_format": "hh3-artifact-1",
  "contractName": "HaikuNFT",
  "sourceName": "contracts/HaikuNFT.sol",
  "abi": [
    {
      "inputs": [],
      "stateMutability": "nonpayable",
      "type": "constructor"
    },
    {
      "inputs": [
        {
          "internalType": "address",
          "name": "sender",
          "type": "address"
        },
        {
          "internalType": "uint256",
          "name": "tokenId",
          "type": "uint256"
        },
        {
          "internalType": "address",
          "name": "owner",
          "type": "address"
        }
      ],
      "name": "ERC721IncorrectOwner",
      "type": "error"
    },
    {
      "inputs": [
        {
          "internalType": "address",
          "name": "operator",
          "type": "address"
        },
        {
          "internalType": "uint256",
          "name": "tokenId",
          "type": "uint256"
        }
      ],
      "name": "ERC721InsufficientApproval",
      "type": "error"
    },
    {
      "inputs": [
        {
          "internalType": "address",
          "name": "approver",
          "type": "address"
        }
      ],
      "name": "ERC721InvalidApprover",
      "type": "error"
    },
    {
      "inputs": [
        {
          "internalType": "address",
          "name": "operator",
          "type": "address"
        }
      ],
      "name": "ERC721InvalidOperator",
      "type": "error"
    },
    {
      "inputs": [
        {
          "internalType": "address",
          "name": "owner",
          "type": "address"
        }
      ],
      "name": "ERC721InvalidOwner",
      "type": "error"
    },
    {
      "inputs": [
        {
          "internalType": "address",
          "name": "receiver",
          "type": "address"
        }
      ],
      "name": "ERC721InvalidReceiver",
      "type": "error"
    },
    {
      "inputs": [
        {
          "internalType": "address",
          "name": "sender",
          "type": "address"
        }
      ],
      "name": "ERC721InvalidSender",
      "type": "error"
    },
    {
      "inputs": [
        {
          "internalType": "uint256",
          "name": "tokenId",
          "type": "uint256"
        }
      ],
      "name": "ERC721NonexistentToken",
      "type": "error"
    },
    {
      "inputs": [],
      "name": "HaikuNotUnique",
      "type": "error"
    },
    {
      "inputs": [],
      "name": "NoHaikusShared",
      "type": "error"
    },
    {
      "inputs": [],
      "name": "NotYourHaiku",
      "type": "error"
    },
    {
      "anonymous": false,
      "inputs": [
        {
          "indexed": true,
          "internalType": "address",
          "name": "owner",
          "type": "address"
        },
        {
          "indexed": true,
          "internalType": "address",
          "name": "approved",
          "type": "address"
        },
        {
          "indexed": true,
          "internalType": "uint256",
          "name": "tokenId",
          "type": "uint256"
        }
      ],
      "name": "Approval",
      "type": "event"
    },
    {
      "anonymous": false,
      "inputs": [
        {
          "indexed": true,
          "internalType": "address",
          "name": "owner",
          "type": "address"
        },
        {
          "indexed": true,
          "internalType": "address",
          "name": "operator",
          "type": "address"
        },
        {
          "indexed": false,
          "internalType": "bool",
          "name": "approved",
          "type": "bool"
        }
      ],
      "name": "ApprovalForAll",
      "type": "event"
    },
    {
      "anonymous": false,
      "inputs": [
        {
          "indexed": true,
          "internalType": "address",
          "name": "from",
          "type": "address"
        },
        {
          "indexed": true,
          "internalType": "address",
          "name": "to",
          "type": "address"
        },
        {
          "indexed": true,
          "internalType": "uint256",
          "name": "tokenId",
          "type": "uint256"
        }
      ],
      "name": "Transfer",
      "type": "event"
    },
    {
      "inputs": [
        {
          "internalType": "address",
          "name": "to",
          "type": "address"
        },
        {
          "internalType": "uint256",
          "name": "tokenId",
          "type": "uint256"
        }
      ],
      "name": "approve",
      "outputs": [],
      "stateMutability": "nonpayable",
      "type": "function"
    },
    {
      "inputs": [
        {
          "internalType": "address",
          "name": "owner",
          "type": "address"
        }
      ],
      "name": "balanceOf",
      "outputs": [
        {
          "internalType": "uint256",
          "name": "",
          "type": "uint256"
        }
      ],
      "stateMutability": "view",
      "type": "function"
    },
    {
      "inputs": [],
      "name": "counter",
      "outputs": [
        {
          "internalType": "uint256",
          "name": "",
          "type": "uint256"
        }
      ],
      "stateMutability": "view",
      "type": "function"
    },
    {
      "inputs": [
        {
          "internalType": "uint256",
          "name": "tokenId",
          "type": "uint256"
        }
      ],
      "name": "getApproved",
      "outputs": [
        {
          "internalType": "address",
          "name": "",
          "type": "address"
        }
      ],
      "stateMutability": "view",
      "type": "function"
    },
    {
      "inputs": [],
      "name": "getMySharedHaikus",
      "outputs": [
        {
          "components": [
            {
              "internalType": "address",
              "name": "author",
              "type": "address"
            },
            {
              "internalType": "string",
              "name": "line1",
              "type": "string"
            },
            {
              "internalType": "string",
              "name": "line2",
              "type": "string"
            },
            {
              "internalType": "string",
              "name": "line3",
              "type": "string"
            }
          ],
          "internalType": "struct ISubmission.Haiku[]",
          "name": "",
          "type": "tuple[]"
        }
      ],
      "stateMutability": "view",
      "type": "function"
    },
    {
      "inputs": [],
      "name": "haikuCounter",
      "outputs": [
        {
          "internalType": "uint256",
          "name": "",
          "type": "uint256"
        }
      ],
      "stateMutability": "view",
      "type": "function"
    },
    {
      "inputs": [
        {
          "internalType": "uint256",
          "name": "",
          "type": "uint256"
        }
      ],
      "name": "haikus",
      "outputs": [
        {
          "internalType": "address",
          "name": "author",
          "type": "address"
        },
        {
          "internalType": "string",
          "name": "line1",
          "type": "string"
        },
        {
          "internalType": "string",
          "name": "line2",
          "type": "string"
        },
        {
          "internalType": "string",
          "name": "line3",
          "type": "string"
        }
      ],
      "stateMutability": "view",
      "type": "function"
    },
    {
      "inputs": [
        {
          "internalType": "address",
          "name": "owner",
          "type": "address"
        },
        {
          "internalType": "address",
          "name": "operator",
          "type": "address"
        }
      ],
      "name": "isApprovedForAll",
      "outputs": [
        {
          "internalType": "bool",
          "name": "",
          "type": "bool"
        }
      ],
      "stateMutability": "view",
      "type": "function"
    },
    {
      "inputs": [
        {
          "internalType": "string",
          "name": "_line1",
          "type": "string"
        },
        {
          "internalType": "string",
          "name": "_line2",
          "type": "string"
        },
        {
          "internalType": "string",
          "name": "_line3",
          "type": "string"
        }
      ],
      "name": "mintHaiku",
      "outputs": [],
      "stateMutability": "nonpayable",
      "type": "function"
    },
    {
      "inputs": [],
      "name": "name",
      "outputs": [
        {
          "internalType": "string",
          "name": "",
          "type": "string"
        }
      ],
      "stateMutability": "view",
      "type": "function"
    },
    {
      "inputs": [
        {
          "internalType": "uint256",
          "name": "tokenId",
          "type": "uint256"
        }
      ],
      "name": "ownerOf",
      "outputs": [
        {
          "internalType": "address",
          "name": "",
          "type": "address"
        }
      ],
      "stateMutability": "view",
      "type": "function"
    },
    {
      "inputs": [
        {
          "internalType": "address",
          "name": "from",
          "type": "address"
        },
        {
          "internalType": "address",
          "name": "to",
          "type": "address"
        },
        {
          "internalType": "uint256",
          "name": "tokenId",
          "type": "uint256"
        }
      ],
      "name": "safeTransferFrom",
      "outputs": [],
      "stateMutability": "nonpayable",
      "type": "function"
    },
    {
      "inputs": [
        {
          "internalType": "address",
          "name": "from",
          "type": "address"
        },
        {
          "internalType": "address",
          "name": "to",
          "type": "address"
        },
        {
          "internalType": "uint256",
          "name": "tokenId",
          "type": "uint256"
        },
        {
          "internalType": "bytes",
          "name": "data",
          "type": "bytes"
        }
      ],
      "name": "safeTransferFrom",
      "outputs": [],
      "stateMutability": "nonpayable",
      "type": "function"
    },
    {
      "inputs": [
        {
          "internalType": "address",
          "name": "operator",
          "type": "address"
        },
        {
          "internalType": "bool",
          "name": "approved",
          "type": "bool"
        }
      ],
      "name": "setApprovalForAll",
      "outputs": [],
      "stateMutability": "nonpayable",
      "type": "function"
    },
    {
      "inputs": [
        {
          "internalType": "uint256",
          "name": "_id",
          "type": "uint256"
        },
        {
          "internalType": "address",
          "name": "_to",
          "type": "address"
        }
      ],
      "name": "shareHaiku",
      "outputs": [],
      "stateMutability": "nonpayable",
      "type": "function"
    },
    {
      "inputs": [
        {
          "internalType": "address",
          "name": "",
          "type": "address"
        },
        {
          "internalType": "uint256",
          "name": "",
          "type": "uint256"
        }
      ],
      "name": "sharedHaikus",
      "outputs": [
        {
          "internalType": "bool",
          "name": "",
          "type": "bool"
        }
      ],
      "stateMutability": "view",
      "type": "function"
    },
    {
      "inputs": [
        {
          "internalType": "bytes4",
          "name": "interfaceId",
          "type": "bytes4"
        }
      ],
      "name": "supportsInterface",
      "outputs": [
        {
          "internalType": "bool",
          "name": "",
          "type": "bool"
        }
      ],
      "stateMutability": "view",
      "type": "function"
    },
    {
      "inputs": [],
      "name": "symbol",
      "outputs": [
        {
          "internalType": "string",
          "name": "",
          "type": "string"
        }
      ],
      "stateMutability": "view",
      "type": "function"
    },
    {
      "inputs": [
        {
          "internalType": "uint256",
          "name": "tokenId",
          "type": "uint256"
        }
      ],
      "name": "tokenURI",
      "outputs": [
        {
          "internalType": "string",
          "name": "",
          "type": "string"
        }
      ],
      "stateMutability": "view",
      "type": "function"
    },
    {
      "inputs": [
        {
          "internalType": "address",
          "name": "from",
          "type": "address"
        },
        {
          "internalType": "address",
          "name": "to",
          "type": "address"
        },
        {
          "internalType": "uint256",
          "name": "tokenId",
          "type": "uint256"
        }
      ],
      "name": "transferFrom",
      "outputs": [],
      "stateMutability": "nonpayable",
      "type": "function"
    }
  ],
  "bytecode": "0x60c0604052600560809081526476616c756560d81b60a0526009906100249082610130565b50348015610030575f5ffd5b506040518060400160405280600881526020016712185a5add53919560c21b815250604051806040016040528060058152602001644841494b5560d81b815250815f908161007e9190610130565b50600161008b8282610130565b50506001600855506101ea565b634e487b7160e01b5f52604160045260245ffd5b600181811c908216806100c057607f821691505b6020821081036100de57634e487b7160e01b5f52602260045260245ffd5b50919050565b601f82111561012b57805f5260205f20601f840160051c810160208510156101095750805b601f840160051c820191505b81811015610128575f8155600101610115565b50505b505050565b81516001600160401b0381111561014957610149610098565b61015d8161015784546100ac565b846100e4565b6020601f82116001811461018f575f83156101785750848201515b5f19600385901b1c1916600184901b178455610128565b5f84815260208120601f198516915b828110156101be578785015182556020948501946001909201910161019e565b50848210156101db57868401515f19600387901b60f8161c191681555b50505050600190811b01905550565b611f5c806101f75f395ff3fe608060405234801561000f575f5ffd5b5060043610610127575f3560e01c806361bc221a116100a957806397afe82d1161006e57806397afe82d14610279578063a22cb465146102a6578063b88d4fde146102b9578063c87b56dd146102cc578063e985e9c5146102df575f5ffd5b806361bc221a146102205780636352211e1461022857806370a082311461023b5780637cb82b2a1461024e57806395d89b4114610271575f5ffd5b80632c83ea56116100ef5780632c83ea56146101bb57806331d81cbb146101ce578063350fe165146101e557806342842e0e146101f857806349af5bfe1461020b575f5ffd5b806301ffc9a71461012b57806306fdde0314610153578063081812fc14610168578063095ea7b31461019357806323b872dd146101a8575b5f5ffd5b61013e6101393660046118ae565b6102f2565b60405190151581526020015b60405180910390f35b61015b610343565b60405161014a91906118f7565b61017b610176366004611909565b6103d2565b6040516001600160a01b03909116815260200161014a565b6101a66101a136600461193b565b6103f9565b005b6101a66101b6366004611963565b610408565b6101a66101c936600461199d565b610496565b6101d760085481565b60405190815260200161014a565b6101a66101f3366004611a70565b61073f565b6101a6610206366004611963565b610b5b565b610213610b7a565b60405161014a9190611afe565b6008546101d7565b61017b610236366004611909565b610ee0565b6101d7610249366004611bb7565b610eea565b61026161025c366004611909565b610f2f565b60405161014a9493929190611bd0565b61015b611105565b61013e61028736600461193b565b600760209081525f928352604080842090915290825290205460ff1681565b6101a66102b4366004611c24565b611114565b6101a66102c7366004611c5d565b61111f565b61015b6102da366004611909565b611137565b61013e6102ed366004611cd4565b6111a8565b5f6001600160e01b031982166380ac58cd60e01b148061032257506001600160e01b03198216635b5e139f60e01b145b8061033d57506301ffc9a760e01b6001600160e01b03198316145b92915050565b60605f805461035190611cfc565b80601f016020809104026020016040519081016040528092919081815260200182805461037d90611cfc565b80156103c85780601f1061039f576101008083540402835291602001916103c8565b820191905f5260205f20905b8154815290600101906020018083116103ab57829003601f168201915b5050505050905090565b5f6103dc826111d5565b505f828152600460205260409020546001600160a01b031661033d565b61040482823361120d565b5050565b6001600160a01b03821661043657604051633250574960e11b81525f60048201526024015b60405180910390fd5b5f61044283833361121a565b9050836001600160a01b0316816001600160a01b031614610490576040516364283d7b60e01b81526001600160a01b038086166004830152602482018490528216604482015260640161042d565b50505050565b5f821180156104a757506008548211155b6104e65760405162461bcd60e51b815260206004820152601060248201526f125b9d985b1a59081a185a5add48125160821b604482015260640161042d565b5f60066104f4600185611d48565b8154811061050457610504611d5b565b5f918252602091829020604080516080810190915260049092020180546001600160a01b03168252600181018054929391929184019161054390611cfc565b80601f016020809104026020016040519081016040528092919081815260200182805461056f90611cfc565b80156105ba5780601f10610591576101008083540402835291602001916105ba565b820191905f5260205f20905b81548152906001019060200180831161059d57829003601f168201915b505050505081526020016002820180546105d390611cfc565b80601f01602080910402602001604051908101604052809291908181526020018280546105ff90611cfc565b801561064a5780601f106106215761010080835404028352916020019161064a565b820191905f5260205f20905b81548152906001019060200180831161062d57829003601f168201915b5050505050815260200160038201805461066390611cfc565b80601f016020809104026020016040519081016040528092919081815260200182805461068f90611cfc565b80156106da5780601f106106b1576101008083540402835291602001916106da565b820191905f5260205f20905b8154815290600101906020018083116106bd57829003601f168201915b5050509190925250508151919250506001600160a01b03163314610711576040516335c8884360e21b815260040160405180910390fd5b506001600160a01b03165f90815260076020908152604080832093835292905220805460ff19166001179055565b60408051606081018252848152602081018490529081018290525f5b6003811015610a5b575f82826003811061077757610777611d5b565b602002015190505f5b600654811015610a51575f6006828154811061079e5761079e611d5b565b5f918252602091829020604080516080810190915260049092020180546001600160a01b0316825260018101805492939192918401916107dd90611cfc565b80601f016020809104026020016040519081016040528092919081815260200182805461080990611cfc565b80156108545780601f1061082b57610100808354040283529160200191610854565b820191905f5260205f20905b81548152906001019060200180831161083757829003601f168201915b5050505050815260200160028201805461086d90611cfc565b80601f016020809104026020016040519081016040528092919081815260200182805461089990611cfc565b80156108e45780601f106108bb576101008083540402835291602001916108e4565b820191905f5260205f20905b8154815290600101906020018083116108c757829003601f168201915b505050505081526020016003820180546108fd90611cfc565b80601f016020809104026020016040519081016040528092919081815260200182805461092990611cfc565b80156109745780601f1061094b57610100808354040283529160200191610974565b820191905f5260205f20905b81548152906001019060200180831161095757829003601f168201915b50505050508152505090505f60405180606001604052808360200151815260200183604001518152602001836060015181525090505f5f90505b6003811015610a46575f8282600381106109ca576109ca611d5b565b60200201519050856040516020016109e29190611d86565b6040516020818303038152906040528051906020012081604051602001610a099190611d86565b6040516020818303038152906040528051906020012003610a3d5760405163349d444f60e11b815260040160405180910390fd5b506001016109ae565b505050600101610780565b505060010161075b565b50610a683360085461130c565b604080516080810182523381526020810186815291810185905260608101849052600680546001810182555f9190915281517ff652222313e28459528d920b65115c16c04f3efc82aaedc97be59f3f377c0d3f600490920291820180546001600160a01b0319166001600160a01b0390921691909117815592519192917ff652222313e28459528d920b65115c16c04f3efc82aaedc97be59f3f377c0d4090910190610b149082611dd5565b5060408201516002820190610b299082611dd5565b5060608201516003820190610b3e9082611dd5565b50506008805491505f610b5083611e90565b919050555050505050565b610b7583838360405180602001604052805f81525061111f565b505050565b60605f805b600654811015610bd157335f90815260076020526040812090610ba3836001611ea8565b815260208101919091526040015f205460ff1615610bc95781610bc581611e90565b9250505b600101610b7f565b505f8167ffffffffffffffff811115610bec57610bec6119c7565b604051908082528060200260200182016040528015610c5057816020015b610c3d60405180608001604052805f6001600160a01b031681526020016060815260200160608152602001606081525090565b815260200190600190039081610c0a5790505b5090505f805b600654811015610eb857335f90815260076020526040812090610c7a836001611ea8565b815260208101919091526040015f205460ff1615610eb05760068181548110610ca557610ca5611d5b565b5f918252602091829020604080516080810190915260049092020180546001600160a01b031682526001810180549293919291840191610ce490611cfc565b80601f0160208091040260200160405190810160405280929190818152602001828054610d1090611cfc565b8015610d5b5780601f10610d3257610100808354040283529160200191610d5b565b820191905f5260205f20905b815481529060010190602001808311610d3e57829003601f168201915b50505050508152602001600282018054610d7490611cfc565b80601f0160208091040260200160405190810160405280929190818152602001828054610da090611cfc565b8015610deb5780601f10610dc257610100808354040283529160200191610deb565b820191905f5260205f20905b815481529060010190602001808311610dce57829003601f168201915b50505050508152602001600382018054610e0490611cfc565b80601f0160208091040260200160405190810160405280929190818152602001828054610e3090611cfc565b8015610e7b5780601f10610e5257610100808354040283529160200191610e7b565b820191905f5260205f20905b815481529060010190602001808311610e5e57829003601f168201915b505050505081525050838381518110610e9657610e96611d5b565b60200260200101819052508180610eac90611e90565b9250505b600101610c56565b50825f03610ed95760405163f8826a6960e01b815260040160405180910390fd5b5092915050565b5f61033d826111d5565b5f6001600160a01b038216610f14576040516322718ad960e21b81525f600482015260240161042d565b506001600160a01b03165f9081526003602052604090205490565b60068181548110610f3e575f80fd5b5f918252602090912060049091020180546001820180546001600160a01b03909216935090610f6c90611cfc565b80601f0160208091040260200160405190810160405280929190818152602001828054610f9890611cfc565b8015610fe35780601f10610fba57610100808354040283529160200191610fe3565b820191905f5260205f20905b815481529060010190602001808311610fc657829003601f168201915b505050505090806002018054610ff890611cfc565b80601f016020809104026020016040519081016040528092919081815260200182805461102490611cfc565b801561106f5780601f106110465761010080835404028352916020019161106f565b820191905f5260205f20905b81548152906001019060200180831161105257829003601f168201915b50505050509080600301805461108490611cfc565b80601f01602080910402602001604051908101604052809291908181526020018280546110b090611cfc565b80156110fb5780601f106110d2576101008083540402835291602001916110fb565b820191905f5260205f20905b8154815290600101906020018083116110de57829003601f168201915b5050505050905084565b60606001805461035190611cfc565b610404338383611325565b61112a848484610408565b61049033858585856113c3565b6060611142826111d5565b505f61115860408051602081019091525f815290565b90505f8151116111765760405180602001604052805f8152506111a1565b80611180846114eb565b604051602001611191929190611ebb565b6040516020818303038152906040525b9392505050565b6001600160a01b039182165f90815260056020908152604080832093909416825291909152205460ff1690565b5f818152600260205260408120546001600160a01b03168061033d57604051637e27328960e01b81526004810184905260240161042d565b610b75838383600161157b565b5f828152600260205260408120546001600160a01b03908116908316156112465761124681848661167f565b6001600160a01b03811615611280576112615f855f5f61157b565b6001600160a01b0381165f90815260036020526040902080545f190190555b6001600160a01b038516156112ae576001600160a01b0385165f908152600360205260409020805460010190555b5f8481526002602052604080822080546001600160a01b0319166001600160a01b0389811691821790925591518793918516917fddf252ad1be2c89b69c2b068fc378daa952ba7f163c4a11628f55a4df523b3ef91a4949350505050565b610404828260405180602001604052805f8152506116e3565b6001600160a01b03821661135757604051630b61174360e31b81526001600160a01b038316600482015260240161042d565b6001600160a01b038381165f81815260056020908152604080832094871680845294825291829020805460ff191686151590811790915591519182527f17307eab39ab6107e8899845ad3d59bd9653f200f220920489ca2b5937696c31910160405180910390a3505050565b6001600160a01b0383163b156114e457604051630a85bd0160e11b81526001600160a01b0384169063150b7a0290611405908890889087908790600401611ecf565b6020604051808303815f875af192505050801561143f575060408051601f3d908101601f1916820190925261143c91810190611f0b565b60015b6114a6573d80801561146c576040519150601f19603f3d011682016040523d82523d5f602084013e611471565b606091505b5080515f0361149e57604051633250574960e11b81526001600160a01b038516600482015260240161042d565b805160208201fd5b6001600160e01b03198116630a85bd0160e11b146114e257604051633250574960e11b81526001600160a01b038516600482015260240161042d565b505b5050505050565b60605f6114f7836116fa565b60010190505f8167ffffffffffffffff811115611516576115166119c7565b6040519080825280601f01601f191660200182016040528015611540576020820181803683370190505b5090508181016020015b5f19016f181899199a1a9b1b9c1cb0b131b232b360811b600a86061a8153600a850494508461154a57509392505050565b808061158f57506001600160a01b03821615155b15611650575f61159e846111d5565b90506001600160a01b038316158015906115ca5750826001600160a01b0316816001600160a01b031614155b80156115dd57506115db81846111a8565b155b156116065760405163a9fbf51f60e01b81526001600160a01b038416600482015260240161042d565b811561164e5783856001600160a01b0316826001600160a01b03167f8c5be1e5ebec7d5bd14f71427d1e84f3dd0314c0f7b2291e5b200ac8c7c3b92560405160405180910390a45b505b50505f90815260046020526040902080546001600160a01b0319166001600160a01b0392909216919091179055565b61168a8383836117d1565b610b75576001600160a01b0383166116b857604051637e27328960e01b81526004810182905260240161042d565b60405163177e802f60e01b81526001600160a01b03831660048201526024810182905260440161042d565b6116ed8383611835565b610b75335f8585856113c3565b5f8072184f03e93ff9f4daa797ed6e38ed64bf6a1f0160401b83106117385772184f03e93ff9f4daa797ed6e38ed64bf6a1f0160401b830492506040015b6d04ee2d6d415b85acef81000000008310611764576d04ee2d6d415b85acef8100000000830492506020015b662386f26fc10000831061178257662386f26fc10000830492506010015b6305f5e100831061179a576305f5e100830492506008015b61271083106117ae57612710830492506004015b606483106117c0576064830492506002015b600a831061033d5760010192915050565b5f6001600160a01b0383161580159061182d5750826001600160a01b0316846001600160a01b0316148061180a575061180a84846111a8565b8061182d57505f828152600460205260409020546001600160a01b038481169116145b949350505050565b6001600160a01b03821661185e57604051633250574960e11b81525f600482015260240161042d565b5f61186a83835f61121a565b90506001600160a01b03811615610b75576040516339e3563760e11b81525f600482015260240161042d565b6001600160e01b0319811681146118ab575f5ffd5b50565b5f602082840312156118be575f5ffd5b81356111a181611896565b5f81518084528060208401602086015e5f602082860101526020601f19601f83011685010191505092915050565b602081525f6111a160208301846118c9565b5f60208284031215611919575f5ffd5b5035919050565b80356001600160a01b0381168114611936575f5ffd5b919050565b5f5f6040838503121561194c575f5ffd5b61195583611920565b946020939093013593505050565b5f5f5f60608486031215611975575f5ffd5b61197e84611920565b925061198c60208501611920565b929592945050506040919091013590565b5f5f604083850312156119ae575f5ffd5b823591506119be60208401611920565b90509250929050565b634e487b7160e01b5f52604160045260245ffd5b5f5f67ffffffffffffffff8411156119f5576119f56119c7565b50604051601f19601f85018116603f0116810181811067ffffffffffffffff82111715611a2457611a246119c7565b604052838152905080828401851015611a3b575f5ffd5b838360208301375f60208583010152509392505050565b5f82601f830112611a61575f5ffd5b6111a1838335602085016119db565b5f5f5f60608486031215611a82575f5ffd5b833567ffffffffffffffff811115611a98575f5ffd5b611aa486828701611a52565b935050602084013567ffffffffffffffff811115611ac0575f5ffd5b611acc86828701611a52565b925050604084013567ffffffffffffffff811115611ae8575f5ffd5b611af486828701611a52565b9150509250925092565b5f602082016020835280845180835260408501915060408160051b8601019250602086015f5b82811015611bab57868503603f19018452815180516001600160a01b03168652602080820151608091880182905290611b5f908801826118c9565b905060408201518782036040890152611b7882826118c9565b915050606082015191508681036060880152611b9481836118c9565b965050506020938401939190910190600101611b24565b50929695505050505050565b5f60208284031215611bc7575f5ffd5b6111a182611920565b6001600160a01b03851681526080602082018190525f90611bf3908301866118c9565b8281036040840152611c0581866118c9565b90508281036060840152611c1981856118c9565b979650505050505050565b5f5f60408385031215611c35575f5ffd5b611c3e83611920565b915060208301358015158114611c52575f5ffd5b809150509250929050565b5f5f5f5f60808587031215611c70575f5ffd5b611c7985611920565b9350611c8760208601611920565b925060408501359150606085013567ffffffffffffffff811115611ca9575f5ffd5b8501601f81018713611cb9575f5ffd5b611cc8878235602084016119db565b91505092959194509250565b5f5f60408385031215611ce5575f5ffd5b611cee83611920565b91506119be60208401611920565b600181811c90821680611d1057607f821691505b602082108103611d2e57634e487b7160e01b5f52602260045260245ffd5b50919050565b634e487b7160e01b5f52601160045260245ffd5b8181038181111561033d5761033d611d34565b634e487b7160e01b5f52603260045260245ffd5b5f81518060208401855e5f93019283525090919050565b5f6111a18284611d6f565b601f821115610b7557805f5260205f20601f840160051c81016020851015611db65750805b601f840160051c820191505b818110156114e4575f8155600101611dc2565b815167ffffffffffffffff811115611def57611def6119c7565b611e0381611dfd8454611cfc565b84611d91565b6020601f821160018114611e35575f8315611e1e5750848201515b5f19600385901b1c1916600184901b1784556114e4565b5f84815260208120601f198516915b82811015611e645787850151825560209485019460019092019101611e44565b5084821015611e8157868401515f19600387901b60f8161c191681555b50505050600190811b01905550565b5f60018201611ea157611ea1611d34565b5060010190565b8082018082111561033d5761033d611d34565b5f61182d611ec98386611d6f565b84611d6f565b6001600160a01b03858116825284166020820152604081018390526080606082018190525f90611f01908301846118c9565b9695505050505050565b5f60208284031215611f1b575f5ffd5b81516111a18161189656fea2646970667358221220527a4b55edca5d021b774c70010655aef47a13c0319c390fcba74b4d798513b764736f6c634300081c0033",
  "linkReferences": {},
  "deployedLinkReferences": {},
  "immutableReferences": {},
  "inputSourceName": "project/contracts/HaikuNFT.sol",
  "buildInfoId": "solc-0_8_28-df26da060739dac1d77eeb97aff444d26372744f"
}