{
  "_format": "hh3-artifact-1",
  "contractName": "ImportsExercise",
  "sourceName": "contracts/ImportsExercise.sol",
  "abi": [
    {
      "inputs": [],
      "name": "getHaiku",
      "outputs": [
        {
          "components": [
            {
              "internalType": "string",
              "name": "line1",
              "type": "string"
            },
            {
              "internalType": "string",
              "name": "line2",
              "type": "string"
            },
            {
              "internalType": "string",
              "name": "line3",
              "type": "string"
            }
          ],
          "internalType": "struct SillyStringUtils.Haiku",
          "name": "",
          "type": "tuple"
        }
      ],
      "stateMutability": "view",
      "type": "function"
    },
    {
      "inputs": [],
      "name": "haiku",
      "outputs": [
        {
          "internalType": "string",
          "name": "line1",
          "type": "string"
        },
        {
          "internalType": "string",
          "name": "line2",
          "type": "string"
        },
        {
          "internalType": "string",
          "name": "line3",
          "type": "string"
        }
      ],
      "stateMutability": "view",
      "type": "function"
    },
    {
      "inputs": [
        {
          "internalType": "string",
          "name": "_line1",
          "type": "string"
        },
        {
          "internalType": "string",
          "name": "_line2",
          "type": "string"
        },
        {
          "internalType": "string",
          "name": "_line3",
          "type": "string"
        }
      ],
      "name": "saveHaiku",
      "outputs": [],
      "stateMutability": "nonpayable",
      "type": "function"
    },
    {
      "inputs": [],
      "name": "shruggieHaiku",
      "outputs": [
        {
          "components": [
            {
              "internalType": "string",
              "name": "line1",
              "type": "string"
            },
            {
              "internalType": "string",
              "name": "line2",
              "type": "string"
            },
            {
              "internalType": "string",
              "name": "line3",
              "type": "string"
            }
          ],
          "internalType": "struct SillyStringUtils.Haiku",
          "name": "",
          "type": "tuple"
        }
      ],
      "stateMutability": "view",
      "type": "function"
    }
  ],
  "bytecode": "0x6080604052348015600e575f5ffd5b50610a138061001c5f395ff3fe608060405234801561000f575f5ffd5b506004361061004a575f3560e01c806325eb69a91461004e578063583dc7691461006c578063728d3c07146100815780638346cbef14610098575b5f5ffd5b6100566100a0565b60405161006391906106a6565b60405180910390f35b61007f61007a3660046107a4565b610284565b005b6100896102af565b60405161006393929190610832565b610056610456565b6100c460405180606001604052806060815260200160608152602001606081525090565b5f6040518060600160405290815f820180546100df90610874565b80601f016020809104026020016040519081016040528092919081815260200182805461010b90610874565b80156101565780601f1061012d57610100808354040283529160200191610156565b820191905f5260205f20905b81548152906001019060200180831161013957829003601f168201915b5050505050815260200160018201805461016f90610874565b80601f016020809104026020016040519081016040528092919081815260200182805461019b90610874565b80156101e65780601f106101bd576101008083540402835291602001916101e6565b820191905f5260205f20905b8154815290600101906020018083116101c957829003601f168201915b505050505081526020016002820180546101ff90610874565b80601f016020809104026020016040519081016040528092919081815260200182805461022b90610874565b80156102765780601f1061024d57610100808354040283529160200191610276565b820191905f5260205f20905b81548152906001019060200180831161025957829003601f168201915b505050505081525050905090565b5f61028f84826108f8565b50600161029c83826108f8565b5060026102a982826108f8565b50505050565b5f805481906102bd90610874565b80601f01602080910402602001604051908101604052809291908181526020018280546102e990610874565b80156103345780601f1061030b57610100808354040283529160200191610334565b820191905f5260205f20905b81548152906001019060200180831161031757829003601f168201915b50505050509080600101805461034990610874565b80601f016020809104026020016040519081016040528092919081815260200182805461037590610874565b80156103c05780601f10610397576101008083540402835291602001916103c0565b820191905f5260205f20905b8154815290600101906020018083116103a357829003601f168201915b5050505050908060020180546103d590610874565b80601f016020809104026020016040519081016040528092919081815260200182805461040190610874565b801561044c5780601f106104235761010080835404028352916020019161044c565b820191905f5260205f20905b81548152906001019060200180831161042f57829003601f168201915b5050505050905083565b61047a60405180606001604052806060815260200160608152602001606081525090565b5f5f6040518060600160405290815f8201805461049690610874565b80601f01602080910402602001604051908101604052809291908181526020018280546104c290610874565b801561050d5780601f106104e45761010080835404028352916020019161050d565b820191905f5260205f20905b8154815290600101906020018083116104f057829003601f168201915b5050505050815260200160018201805461052690610874565b80601f016020809104026020016040519081016040528092919081815260200182805461055290610874565b801561059d5780601f106105745761010080835404028352916020019161059d565b820191905f5260205f20905b81548152906001019060200180831161058057829003601f168201915b505050505081526020016002820180546105b690610874565b80601f01602080910402602001604051908101604052809291908181526020018280546105e290610874565b801561062d5780601f106106045761010080835404028352916020019161062d565b820191905f5260205f20905b81548152906001019060200180831161061057829003601f168201915b5050505050815250509050610645816040015161064f565b6040820152919050565b60608160405160200161066291906109b3565b6040516020818303038152906040529050919050565b5f81518084528060208401602086015e5f602082860101526020601f19601f83011685010191505092915050565b602081525f8251606060208401526106c16080840182610678565b90506020840151601f198483030160408501526106de8282610678565b9150506040840151601f198483030160608501526106fc8282610678565b95945050505050565b634e487b7160e01b5f52604160045260245ffd5b5f82601f830112610728575f5ffd5b813567ffffffffffffffff81111561074257610742610705565b604051601f8201601f19908116603f0116810167ffffffffffffffff8111828210171561077157610771610705565b604052818152838201602001851015610788575f5ffd5b816020850160208301375f918101602001919091529392505050565b5f5f5f606084860312156107b6575f5ffd5b833567ffffffffffffffff8111156107cc575f5ffd5b6107d886828701610719565b935050602084013567ffffffffffffffff8111156107f4575f5ffd5b61080086828701610719565b925050604084013567ffffffffffffffff81111561081c575f5ffd5b61082886828701610719565b9150509250925092565b606081525f6108446060830186610678565b82810360208401526108568186610678565b9050828103604084015261086a8185610678565b9695505050505050565b600181811c9082168061088857607f821691505b6020821081036108a657634e487b7160e01b5f52602260045260245ffd5b50919050565b601f8211156108f357805f5260205f20601f840160051c810160208510156108d15750805b601f840160051c820191505b818110156108f0575f81556001016108dd565b50505b505050565b815167ffffffffffffffff81111561091257610912610705565b610926816109208454610874565b846108ac565b6020601f821160018114610958575f83156109415750848201515b5f19600385901b1c1916600184901b1784556108f0565b5f84815260208120601f198516915b828110156109875787850151825560209485019460019092019101610967565b50848210156109a457868401515f19600387901b60f8161c191681555b50505050600190811b01905550565b5f82518060208501845e6d20c2af5c5f28e38384295f2fc2af60901b920191825250600e0191905056fea2646970667358221220e00cc9b49f8dd01bd1e83d0c12f5e5c2e68a61713c7dbd125165a1cbf9f7a4a264736f6c634300081c0033",
  "linkReferences": {},
  "deployedLinkReferences": {},
  "immutableReferences": {},
  "inputSourceName": "project/contracts/ImportsExercise.sol",
  "buildInfoId": "solc-0_8_28-08a827bd0d00c94167747f44cabeee409650a644"
}