{
  "_format": "hh3-artifact-1",
  "contractName": "InheritanceSubmission",
  "sourceName": "contracts/InheritanceSubmission.sol",
  "abi": [
    {
      "inputs": [
        {
          "internalType": "address",
          "name": "_salesPerson",
          "type": "address"
        },
        {
          "internalType": "address",
          "name": "_engineeringManager",
          "type": "address"
        }
      ],
      "stateMutability": "nonpayable",
      "type": "constructor"
    },
    {
      "inputs": [],
      "name": "engineeringManager",
      "outputs": [
        {
          "internalType": "address",
          "name": "",
          "type": "address"
        }
      ],
      "stateMutability": "view",
      "type": "function"
    },
    {
      "inputs": [],
      "name": "salesPerson",
      "outputs": [
        {
          "internalType": "address",
          "name": "",
          "type": "address"
        }
      ],
      "stateMutability": "view",
      "type": "function"
    }
  ],
  "bytecode": "0x6080604052348015600e575f5ffd5b50604051610155380380610155833981016040819052602b916074565b5f80546001600160a01b039384166001600160a01b0319918216179091556001805492909316911617905560a0565b80516001600160a01b0381168114606f575f5ffd5b919050565b5f5f604083850312156084575f5ffd5b608b83605a565b9150609760208401605a565b90509250929050565b60a9806100ac5f395ff3fe6080604052348015600e575f5ffd5b50600436106030575f3560e01c80630f628194146034578063687981dd146061575b5f5ffd5b5f546045906001600160a01b031681565b6040516001600160a01b03909116815260200160405180910390f35b6001546045906001600160a01b03168156fea26469706673582212208780cc5dcec7537b993948e50e8fd6fea0dd2ebced0f588cf06fc42bbb901c6964736f6c634300081c0033",
  "linkReferences": {},
  "deployedLinkReferences": {},
  "immutableReferences": {},
  "inputSourceName": "project/contracts/InheritanceSubmission.sol",
  "buildInfoId": "solc-0_8_28-faece575ccb0ee34329529dc8e3c53b94f3c6123"
}