{
  "_format": "hh3-artifact-1",
  "contractName": "Salesperson",
  "sourceName": "contracts/InheritanceSubmission.sol",
  "abi": [
    {
      "inputs": [
        {
          "internalType": "uint256",
          "name": "_idNumber",
          "type": "uint256"
        },
        {
          "internalType": "uint256",
          "name": "_managerId",
          "type": "uint256"
        },
        {
          "internalType": "uint256",
          "name": "_hourlyRate",
          "type": "uint256"
        }
      ],
      "stateMutability": "nonpayable",
      "type": "constructor"
    },
    {
      "inputs": [],
      "name": "getAnnualCost",
      "outputs": [
        {
          "internalType": "uint256",
          "name": "",
          "type": "uint256"
        }
      ],
      "stateMutability": "view",
      "type": "function"
    },
    {
      "inputs": [],
      "name": "hourlyRate",
      "outputs": [
        {
          "internalType": "uint256",
          "name": "",
          "type": "uint256"
        }
      ],
      "stateMutability": "view",
      "type": "function"
    },
    {
      "inputs": [],
      "name": "idNumber",
      "outputs": [
        {
          "internalType": "uint256",
          "name": "",
          "type": "uint256"
        }
      ],
      "stateMutability": "view",
      "type": "function"
    },
    {
      "inputs": [],
      "name": "managerId",
      "outputs": [
        {
          "internalType": "uint256",
          "name": "",
          "type": "uint256"
        }
      ],
      "stateMutability": "view",
      "type": "function"
    }
  ],
  "bytecode": "0x6080604052348015600e575f5ffd5b50604051610159380380610159833981016040819052602b91603a565b5f929092556001556002556064565b5f5f5f60608486031215604b575f5ffd5b5050815160208301516040909301519094929350919050565b60e9806100705f395ff3fe6080604052348015600e575f5ffd5b50600436106044575f3560e01c80633f83ea3b14604857806359a7b3fe1460615780635cdee0c0146069578063f5895a0a14606f575b5f5ffd5b604f5f5481565b60405190815260200160405180910390f35b604f60025481565b604f6077565b604f60015481565b5f60025461082060869190608b565b905090565b808202811582820484141760ad57634e487b7160e01b5f52601160045260245ffd5b9291505056fea26469706673582212200f4821dfc1a466532a1a2913ee32f8d38cf2893707bb491db15ecdc9e1da659c64736f6c634300081c0033",
  "linkReferences": {},
  "deployedLinkReferences": {},
  "immutableReferences": {},
  "inputSourceName": "project/contracts/InheritanceSubmission.sol",
  "buildInfoId": "solc-0_8_28-faece575ccb0ee34329529dc8e3c53b94f3c6123"
}