{
  "_format": "hh3-artifact-1",
  "contractName": "UnburnableToken",
  "sourceName": "contracts/UnburnableToken.sol",
  "abi": [
    {
      "inputs": [],
      "stateMutability": "nonpayable",
      "type": "constructor"
    },
    {
      "inputs": [],
      "name": "AllTokensClaimed",
      "type": "error"
    },
    {
      "inputs": [],
      "name": "TokensClaimed",
      "type": "error"
    },
    {
      "inputs": [
        {
          "internalType": "address",
          "name": "_to",
          "type": "address"
        }
      ],
      "name": "UnsafeTransfer",
      "type": "error"
    },
    {
      "inputs": [
        {
          "internalType": "address",
          "name": "",
          "type": "address"
        }
      ],
      "name": "balances",
      "outputs": [
        {
          "internalType": "uint256",
          "name": "",
          "type": "uint256"
        }
      ],
      "stateMutability": "view",
      "type": "function"
    },
    {
      "inputs": [],
      "name": "claim",
      "outputs": [],
      "stateMutability": "nonpayable",
      "type": "function"
    },
    {
      "inputs": [
        {
          "internalType": "address",
          "name": "_to",
          "type": "address"
        },
        {
          "internalType": "uint256",
          "name": "_amount",
          "type": "uint256"
        }
      ],
      "name": "safeTransfer",
      "outputs": [],
      "stateMutability": "nonpayable",
      "type": "function"
    },
    {
      "inputs": [],
      "name": "totalClaimed",
      "outputs": [
        {
          "internalType": "uint256",
          "name": "",
          "type": "uint256"
        }
      ],
      "stateMutability": "view",
      "type": "function"
    },
    {
      "inputs": [],
      "name": "totalSupply",
      "outputs": [
        {
          "internalType": "uint256",
          "name": "",
          "type": "uint256"
        }
      ],
      "stateMutability": "view",
      "type": "function"
    }
  ],
  "bytecode": "0x60c0604052600660809081526535313638323960d01b60a0525f9061002490826100d6565b50348015610030575f5ffd5b506305f5e100600255610190565b634e487b7160e01b5f52604160045260245ffd5b600181811c9082168061006657607f821691505b60208210810361008457634e487b7160e01b5f52602260045260245ffd5b50919050565b601f8211156100d157805f5260205f20601f840160051c810160208510156100af5750805b601f840160051c820191505b818110156100ce575f81556001016100bb565b50505b505050565b81516001600160401b038111156100ef576100ef61003e565b610103816100fd8454610052565b8461008a565b6020601f821160018114610135575f831561011e5750848201515b5f19600385901b1c1916600184901b1784556100ce565b5f84815260208120601f198516915b828110156101645787850151825560209485019460019092019101610144565b508482101561018157868401515f19600387901b60f8161c191681555b50505050600190811b01905550565b6103348061019d5f395ff3fe608060405234801561000f575f5ffd5b5060043610610055575f3560e01c806318160ddd1461005957806327e235e314610074578063423f6cef146100935780634e71d92d146100a8578063d54ad2a1146100b0575b5f5ffd5b61006260025481565b60405190815260200160405180910390f35b610062610082366004610276565b60016020525f908152604090205481565b6100a66100a1366004610296565b6100b9565b005b6100a66101ad565b61006260035481565b6001600160a01b03821615806100d757506001600160a01b03821631155b1561010557604051631aa1b49360e21b81526001600160a01b03831660048201526024015b60405180910390fd5b335f9081526001602052604090205481111561015a5760405162461bcd60e51b8152602060048201526014602482015273496e73756666696369656e742062616c616e636560601b60448201526064016100fc565b335f90815260016020526040812080548392906101789084906102d2565b90915550506001600160a01b0382165f90815260016020526040812080548392906101a49084906102eb565b90915550505050565b600254600354106101d15760405163cbe2483160e01b815260040160405180910390fd5b335f9081526004602052604090205460ff16156102015760405163058993d360e11b815260040160405180910390fd5b335f90815260016020526040812080546103e892906102219084906102eb565b925050819055506103e860035f82825461023b91906102eb565b9091555050335f908152600460205260409020805460ff19166001179055565b80356001600160a01b0381168114610271575f5ffd5b919050565b5f60208284031215610286575f5ffd5b61028f8261025b565b9392505050565b5f5f604083850312156102a7575f5ffd5b6102b08361025b565b946020939093013593505050565b634e487b7160e01b5f52601160045260245ffd5b818103818111156102e5576102e56102be565b92915050565b808201808211156102e5576102e56102be56fea2646970667358221220be2feed70a73b9767a652928a6175c5a68c027cecb9e368d691fd5da029fe22864736f6c634300081c0033",
  "linkReferences": {},
  "deployedLinkReferences": {},
  "immutableReferences": {},
  "inputSourceName": "project/contracts/UnburnableToken.sol",
  "buildInfoId": "solc-0_8_28-1dd367822802f190484378d50006cbeea6abcb1c"
}