{
  "_format": "hh3-artifact-1",
  "contractName": "WeightedVoting",
  "sourceName": "contracts/WeightedVoting.sol",
  "abi": [
    {
      "inputs": [
        {
          "internalType": "string",
          "name": "_name",
          "type": "string"
        },
        {
          "internalType": "string",
          "name": "_symbol",
          "type": "string"
        }
      ],
      "stateMutability": "nonpayable",
      "type": "constructor"
    },
    {
      "inputs": [],
      "name": "AllTokensClaimed",
      "type": "error"
    },
    {
      "inputs": [],
      "name": "AlreadyVoted",
      "type": "error"
    },
    {
      "inputs": [
        {
          "internalType": "address",
          "name": "spender",
          "type": "address"
        },
        {
          "internalType": "uint256",
          "name": "allowance",
          "type": "uint256"
        },
        {
          "internalType": "uint256",
          "name": "needed",
          "type": "uint256"
        }
      ],
      "name": "ERC20InsufficientAllowance",
      "type": "error"
    },
    {
      "inputs": [
        {
          "internalType": "address",
          "name": "sender",
          "type": "address"
        },
        {
          "internalType": "uint256",
          "name": "balance",
          "type": "uint256"
        },
        {
          "internalType": "uint256",
          "name": "needed",
          "type": "uint256"
        }
      ],
      "name": "ERC20InsufficientBalance",
      "type": "error"
    },
    {
      "inputs": [
        {
          "internalType": "address",
          "name": "approver",
          "type": "address"
        }
      ],
      "name": "ERC20InvalidApprover",
      "type": "error"
    },
    {
      "inputs": [
        {
          "internalType": "address",
          "name": "receiver",
          "type": "address"
        }
      ],
      "name": "ERC20InvalidReceiver",
      "type": "error"
    },
    {
      "inputs": [
        {
          "internalType": "address",
          "name": "sender",
          "type": "address"
        }
      ],
      "name": "ERC20InvalidSender",
      "type": "error"
    },
    {
      "inputs": [
        {
          "internalType": "address",
          "name": "spender",
          "type": "address"
        }
      ],
      "name": "ERC20InvalidSpender",
      "type": "error"
    },
    {
      "inputs": [],
      "name": "NoTokensHeld",
      "type": "error"
    },
    {
      "inputs": [],
      "name": "QuorumTooHigh",
      "type": "error"
    },
    {
      "inputs": [],
      "name": "TokensClaimed",
      "type": "error"
    },
    {
      "inputs": [],
      "name": "VotingClosed",
      "type": "error"
    },
    {
      "anonymous": false,
      "inputs": [
        {
          "indexed": true,
          "internalType": "address",
          "name": "owner",
          "type": "address"
        },
        {
          "indexed": true,
          "internalType": "address",
          "name": "spender",
          "type": "address"
        },
        {
          "indexed": false,
          "internalType": "uint256",
          "name": "value",
          "type": "uint256"
        }
      ],
      "name": "Approval",
      "type": "event"
    },
    {
      "anonymous": false,
      "inputs": [
        {
          "indexed": true,
          "internalType": "address",
          "name": "from",
          "type": "address"
        },
        {
          "indexed": true,
          "internalType": "address",
          "name": "to",
          "type": "address"
        },
        {
          "indexed": false,
          "internalType": "uint256",
          "name": "value",
          "type": "uint256"
        }
      ],
      "name": "Transfer",
      "type": "event"
    },
    {
      "inputs": [
        {
          "internalType": "address",
          "name": "owner",
          "type": "address"
        },
        {
          "internalType": "address",
          "name": "spender",
          "type": "address"
        }
      ],
      "name": "allowance",
      "outputs": [
        {
          "internalType": "uint256",
          "name": "",
          "type": "uint256"
        }
      ],
      "stateMutability": "view",
      "type": "function"
    },
    {
      "inputs": [
        {
          "internalType": "address",
          "name": "spender",
          "type": "address"
        },
        {
          "internalType": "uint256",
          "name": "value",
          "type": "uint256"
        }
      ],
      "name": "approve",
      "outputs": [
        {
          "internalType": "bool",
          "name": "",
          "type": "bool"
        }
      ],
      "stateMutability": "nonpayable",
      "type": "function"
    },
    {
      "inputs": [
        {
          "internalType": "address",
          "name": "account",
          "type": "address"
        }
      ],
      "name": "balanceOf",
      "outputs": [
        {
          "internalType": "uint256",
          "name": "",
          "type": "uint256"
        }
      ],
      "stateMutability": "view",
      "type": "function"
    },
    {
      "inputs": [],
      "name": "claim",
      "outputs": [],
      "stateMutability": "nonpayable",
      "type": "function"
    },
    {
      "inputs": [],
      "name": "claimAmount",
      "outputs": [
        {
          "internalType": "uint256",
          "name": "",
          "type": "uint256"
        }
      ],
      "stateMutability": "view",
      "type": "function"
    },
    {
      "inputs": [
        {
          "internalType": "string",
          "name": "_issueDesc",
          "type": "string"
        },
        {
          "internalType": "uint256",
          "name": "_quorum",
          "type": "uint256"
        }
      ],
      "name": "createIssue",
      "outputs": [
        {
          "internalType": "uint256",
          "name": "",
          "type": "uint256"
        }
      ],
      "stateMutability": "nonpayable",
      "type": "function"
    },
    {
      "inputs": [],
      "name": "decimals",
      "outputs": [
        {
          "internalType": "uint8",
          "name": "",
          "type": "uint8"
        }
      ],
      "stateMutability": "view",
      "type": "function"
    },
    {
      "inputs": [
        {
          "internalType": "uint256",
          "name": "_issueId",
          "type": "uint256"
        }
      ],
      "name": "getIssue",
      "outputs": [
        {
          "components": [
            {
              "internalType": "address[]",
              "name": "voters",
              "type": "address[]"
            },
            {
              "internalType": "string",
              "name": "issueDesc",
              "type": "string"
            },
            {
              "internalType": "uint256",
              "name": "quorum",
              "type": "uint256"
            },
            {
              "internalType": "uint256",
              "name": "totalVotes",
              "type": "uint256"
            },
            {
              "internalType": "uint256",
              "name": "votesFor",
              "type": "uint256"
            },
            {
              "internalType": "uint256",
              "name": "votesAgainst",
              "type": "uint256"
            },
            {
              "internalType": "uint256",
              "name": "votesAbstain",
              "type": "uint256"
            },
            {
              "internalType": "bool",
              "name": "passed",
              "type": "bool"
            },
            {
              "internalType": "bool",
              "name": "closed",
              "type": "bool"
            }
          ],
          "internalType": "struct WeightedVoting.SerializedIssue",
          "name": "",
          "type": "tuple"
        }
      ],
      "stateMutability": "view",
      "type": "function"
    },
    {
      "inputs": [],
      "name": "maxSupply",
      "outputs": [
        {
          "internalType": "uint256",
          "name": "",
          "type": "uint256"
        }
      ],
      "stateMutability": "view",
      "type": "function"
    },
    {
      "inputs": [],
      "name": "name",
      "outputs": [
        {
          "internalType": "string",
          "name": "",
          "type": "string"
        }
      ],
      "stateMutability": "view",
      "type": "function"
    },
    {
      "inputs": [],
      "name": "symbol",
      "outputs": [
        {
          "internalType": "string",
          "name": "",
          "type": "string"
        }
      ],
      "stateMutability": "view",
      "type": "function"
    },
    {
      "inputs": [
        {
          "internalType": "address",
          "name": "",
          "type": "address"
        }
      ],
      "name": "tokensClaimed",
      "outputs": [
        {
          "internalType": "bool",
          "name": "",
          "type": "bool"
        }
      ],
      "stateMutability": "view",
      "type": "function"
    },
    {
      "inputs": [],
      "name": "totalSupply",
      "outputs": [
        {
          "internalType": "uint256",
          "name": "",
          "type": "uint256"
        }
      ],
      "stateMutability": "view",
      "type": "function"
    },
    {
      "inputs": [
        {
          "internalType": "address",
          "name": "to",
          "type": "address"
        },
        {
          "internalType": "uint256",
          "name": "value",
          "type": "uint256"
        }
      ],
      "name": "transfer",
      "outputs": [
        {
          "internalType": "bool",
          "name": "",
          "type": "bool"
        }
      ],
      "stateMutability": "nonpayable",
      "type": "function"
    },
    {
      "inputs": [
        {
          "internalType": "address",
          "name": "from",
          "type": "address"
        },
        {
          "internalType": "address",
          "name": "to",
          "type": "address"
        },
        {
          "internalType": "uint256",
          "name": "value",
          "type": "uint256"
        }
      ],
      "name": "transferFrom",
      "outputs": [
        {
          "internalType": "bool",
          "name": "",
          "type": "bool"
        }
      ],
      "stateMutability": "nonpayable",
      "type": "function"
    },
    {
      "inputs": [
        {
          "internalType": "uint256",
          "name": "_issueId",
          "type": "uint256"
        },
        {
          "internalType": "enum WeightedVoting.Vote",
          "name": "_vote",
          "type": "uint8"
        }
      ],
      "name": "vote",
      "outputs": [],
      "stateMutability": "nonpayable",
      "type": "function"
    }
  ],
  "bytecode": "0x60c060405260046080908152636b756d6960e01b60a052600590610023908261014b565b50620f42406008556064600955604080518082019091526003815262616e7960e81b6020820152600a90610057908261014b565b50348015610063575f5ffd5b506040516113443803806113448339810160408190526100829161028e565b81816003610090838261014b565b50600461009d828261014b565b50506006805460010181555f52506102f3915050565b634e487b7160e01b5f52604160045260245ffd5b600181811c908216806100db57607f821691505b6020821081036100f957634e487b7160e01b5f52602260045260245ffd5b50919050565b601f82111561014657805f5260205f20601f840160051c810160208510156101245750805b601f840160051c820191505b81811015610143575f8155600101610130565b50505b505050565b81516001600160401b03811115610164576101646100b3565b6101788161017284546100c7565b846100ff565b6020601f8211600181146101aa575f83156101935750848201515b5f19600385901b1c1916600184901b178455610143565b5f84815260208120601f198516915b828110156101d957878501518255602094850194600190920191016101b9565b50848210156101f657868401515f19600387901b60f8161c191681555b50505050600190811b01905550565b5f82601f830112610214575f5ffd5b81516001600160401b0381111561022d5761022d6100b3565b604051601f8201601f19908116603f011681016001600160401b038111828210171561025b5761025b6100b3565b604052818152838201602001851015610272575f5ffd5b8160208501602083015e5f918101602001919091529392505050565b5f5f6040838503121561029f575f5ffd5b82516001600160401b038111156102b4575f5ffd5b6102c085828601610205565b602085015190935090506001600160401b038111156102dd575f5ffd5b6102e985828601610205565b9150509250929050565b611044806103005f395ff3fe608060405234801561000f575f5ffd5b50600436106100fb575f3560e01c8063830953ab11610093578063976b311311610063578063976b3113146101ff578063a9059cbb1461021f578063d5abeb0114610232578063dd62ed3e1461023b575f5ffd5b8063830953ab146101c85780638615d855146101d1578063943e8216146101e457806395d89b41146101f7575f5ffd5b8063313ce567116100ce578063313ce567146101655780634e71d92d14610174578063624601b61461017e57806370a08231146101a0575f5ffd5b806306fdde03146100ff578063095ea7b31461011d57806318160ddd1461014057806323b872dd14610152575b5f5ffd5b610107610273565b6040516101149190610bea565b60405180910390f35b61013061012b366004610c17565b610303565b6040519015158152602001610114565b6002545b604051908152602001610114565b610130610160366004610c3f565b61031c565b60405160128152602001610114565b61017c61033f565b005b61013061018c366004610c79565b60076020525f908152604090205460ff1681565b6101446101ae366004610c79565b6001600160a01b03165f9081526020819052604090205490565b61014460095481565b6101446101df366004610c92565b6103c8565b61017c6101f2366004610d04565b61049b565b610107610629565b61021261020d366004610d35565b610638565b6040516101149190610d8f565b61013061022d366004610c17565b6107ac565b61014460085481565b610144610249366004610e2a565b6001600160a01b039182165f90815260016020908152604080832093909416825291909152205490565b60606003805461028290610e5b565b80601f01602080910402602001604051908101604052809291908181526020018280546102ae90610e5b565b80156102f95780601f106102d0576101008083540402835291602001916102f9565b820191905f5260205f20905b8154815290600101906020018083116102dc57829003601f168201915b5050505050905090565b5f336103108185856107b9565b60019150505b92915050565b5f336103298582856107cb565b610334858585610846565b506001949350505050565b6008546009546002546103529190610ea7565b11156103715760405163cbe2483160e01b815260040160405180910390fd5b335f9081526007602052604090205460ff16156103a15760405163058993d360e11b815260040160405180910390fd5b6103ad336009546108a3565b335f908152600760205260409020805460ff19166001179055565b335f908152602081905260408120545f036103f657604051638439960d60e01b815260040160405180910390fd5b60025482111561041857604051620d927360e81b815260040160405180910390fd5b600680546001810182555f919091526009027ff652222313e28459528d920b65115c16c04f3efc82aaedc97be59f3f377c0d3f8101907ff652222313e28459528d920b65115c16c04f3efc82aaedc97be59f3f377c0d410161047b858783610f19565b506003810183905560065461049290600190610fd3565b95945050505050565b5f600683815481106104af576104af610fe6565b905f5260205f20906009020190508060080160019054906101000a900460ff16156104ed5760405163335b65a560e11b815260040160405180910390fd5b6104f781336108db565b1561051557604051637c9a1cf960e01b815260040160405180910390fd5b335f908152602081905260408120549081900361054557604051638439960d60e01b815260040160405180910390fd5b5f83600281111561055857610558610ffa565b0361057b5780826006015f8282546105709190610ea7565b909155506105c09050565b600183600281111561058f5761058f610ffa565b036105a75780826005015f8282546105709190610ea7565b80826007015f8282546105ba9190610ea7565b90915550505b6105ca82336108ff565b5080826004015f8282546105de9190610ea7565b909155505060038201546004830154106106235760088201805461ff0019166101001790556006820154600583015411156106235760088201805460ff191660011790555b50505050565b60606004805461028290610e5b565b61068460405180610120016040528060608152602001606081526020015f81526020015f81526020015f81526020015f81526020015f81526020015f151581526020015f151581525090565b5f6006838154811061069857610698610fe6565b905f5260205f20906009020190506040518061012001604052806106bd835f01610913565b81526020018260020180546106d190610e5b565b80601f01602080910402602001604051908101604052809291908181526020018280546106fd90610e5b565b80156107485780601f1061071f57610100808354040283529160200191610748565b820191905f5260205f20905b81548152906001019060200180831161072b57829003601f168201915b505050918352505060038301546020820152600483015460408201526005830154606082015260068301546080820152600783015460a082015260089092015460ff808216151560c085015261010090910416151560e09092019190915292915050565b5f33610310818585610846565b6107c6838383600161091f565b505050565b6001600160a01b038381165f908152600160209081526040808320938616835292905220545f19811015610623578181101561083857604051637dc7a0d960e11b81526001600160a01b038416600482015260248101829052604481018390526064015b60405180910390fd5b61062384848484035f61091f565b6001600160a01b03831661086f57604051634b637e8f60e11b81525f600482015260240161082f565b6001600160a01b0382166108985760405163ec442f0560e01b81525f600482015260240161082f565b6107c68383836109f1565b6001600160a01b0382166108cc5760405163ec442f0560e01b81525f600482015260240161082f565b6108d75f83836109f1565b5050565b6001600160a01b0381165f90815260018301602052604081205415155b9392505050565b5f6108f8836001600160a01b038416610b17565b60605f6108f883610b63565b6001600160a01b0384166109485760405163e602df0560e01b81525f600482015260240161082f565b6001600160a01b03831661097157604051634a1406b160e11b81525f600482015260240161082f565b6001600160a01b038085165f908152600160209081526040808320938716835292905220829055801561062357826001600160a01b0316846001600160a01b03167f8c5be1e5ebec7d5bd14f71427d1e84f3dd0314c0f7b2291e5b200ac8c7c3b925846040516109e391815260200190565b60405180910390a350505050565b6001600160a01b038316610a1b578060025f828254610a109190610ea7565b90915550610a8b9050565b6001600160a01b0383165f9081526020819052604090205481811015610a6d5760405163391434e360e21b81526001600160a01b0385166004820152602481018290526044810183905260640161082f565b6001600160a01b0384165f9081526020819052604090209082900390555b6001600160a01b038216610aa757600280548290039055610ac5565b6001600160a01b0382165f9081526020819052604090208054820190555b816001600160a01b0316836001600160a01b03167fddf252ad1be2c89b69c2b068fc378daa952ba7f163c4a11628f55a4df523b3ef83604051610b0a91815260200190565b60405180910390a3505050565b5f818152600183016020526040812054610b5c57508154600181810184555f848152602080822090930184905584548482528286019093526040902091909155610316565b505f610316565b6060815f01805480602002602001604051908101604052809291908181526020018280548015610bb057602002820191905f5260205f20905b815481526020019060010190808311610b9c575b50505050509050919050565b5f81518084528060208401602086015e5f602082860101526020601f19601f83011685010191505092915050565b602081525f6108f86020830184610bbc565b80356001600160a01b0381168114610c12575f5ffd5b919050565b5f5f60408385031215610c28575f5ffd5b610c3183610bfc565b946020939093013593505050565b5f5f5f60608486031215610c51575f5ffd5b610c5a84610bfc565b9250610c6860208501610bfc565b929592945050506040919091013590565b5f60208284031215610c89575f5ffd5b6108f882610bfc565b5f5f5f60408486031215610ca4575f5ffd5b833567ffffffffffffffff811115610cba575f5ffd5b8401601f81018613610cca575f5ffd5b803567ffffffffffffffff811115610ce0575f5ffd5b866020828401011115610cf1575f5ffd5b6020918201979096509401359392505050565b5f5f60408385031215610d15575f5ffd5b82359150602083013560038110610d2a575f5ffd5b809150509250929050565b5f60208284031215610d45575f5ffd5b5035919050565b5f8151808452602084019350602083015f5b82811015610d855781516001600160a01b0316865260209586019590910190600101610d5e565b5093949350505050565b602081525f82516101206020840152610dac610140840182610d4c565b90506020840151601f19848303016040850152610dc98282610bbc565b9150506040840151606084015260608401516080840152608084015160a084015260a084015160c084015260c084015160e084015260e0840151610e1261010085018215159052565b50610100840151801515610120850152509392505050565b5f5f60408385031215610e3b575f5ffd5b610e4483610bfc565b9150610e5260208401610bfc565b90509250929050565b600181811c90821680610e6f57607f821691505b602082108103610e8d57634e487b7160e01b5f52602260045260245ffd5b50919050565b634e487b7160e01b5f52601160045260245ffd5b8082018082111561031657610316610e93565b634e487b7160e01b5f52604160045260245ffd5b601f8211156107c657805f5260205f20601f840160051c81016020851015610ef35750805b601f840160051c820191505b81811015610f12575f8155600101610eff565b5050505050565b67ffffffffffffffff831115610f3157610f31610eba565b610f4583610f3f8354610e5b565b83610ece565b5f601f841160018114610f76575f8515610f5f5750838201355b5f19600387901b1c1916600186901b178355610f12565b5f83815260208120601f198716915b82811015610fa55786850135825560209485019460019092019101610f85565b5086821015610fc1575f1960f88860031b161c19848701351681555b505060018560011b0183555050505050565b8181038181111561031657610316610e93565b634e487b7160e01b5f52603260045260245ffd5b634e487b7160e01b5f52602160045260245ffdfea264697066735822122012eb99147b6cabd1020df7f72f4fbd86fe68d40853d6be751acb33b3fb96877c64736f6c634300081c0033",
  "linkReferences": {},
  "deployedLinkReferences": {},
  "immutableReferences": {},
  "inputSourceName": "project/contracts/WeightedVoting.sol",
  "buildInfoId": "solc-0_8_28-cc00036761361a6d8a85aa260a6a511be6ae602c"
}